:020000040000fa
:080000000002040000000000f2
:020000040000fa
:100400008f0921000e7f22000e01880000000000ed
:100410000c00070080052400010020001f000700d9
:10042000000020000000e000020032000000020096
:10043000000000007e1e0200000000000040da0004
:100440000000fe004440a900204e20000000e00013
:100450000300320000002000a00188004440a800f2
:1004600000000600f03fb1000180b1000600350039
:10047000ee03090000000000403fb1000180b10020
:10048000fbff3d001000b000203fb000020035002f
:1004900000800900000000000000060091018800b3
:1004a000800078000000eb0015003700e28040007b
:1004b00032a0b4009101ba00e280400032a0b40042
:1004c0009102ba00e280400032a0b4000002eb00ca
:1004d000472bde00f507b200602ce10004003a0073
:1004e0000059eb008301e900fdff3e0004003700e6
:1004f0006128e100010032000082eb0004000700e7
:100500001101ba000200e000e8ff3a000000060016
:100510003159ba008301e9000c0032002159ba00b8
:100520008301e900080032000400e00003003a0003
:10053000e280400032a0b400f5ff370011d9ba00c4
:100540008301e900faff3a008100e800e180400001
:1005500032a0b4000000060000000000000000000f
:10056000000000000000000000000000000000008b
:10057000000000000000000000000000000000007b
:10058000000000000000000000000000000000006b
:10059000000000000000000000000000000000005b
:1005a000000000000000000000000000000000004b
:1005b000000000000000000000000000000000003b
:1005c000000000000000000000000000000000002b
:1005d0000000000000000000839f68000100e000b0
:1005e00002003d0060001000e08018000300e00001
:1005f00002003d0060011100e081190005000700c4
:100600004f00e00002003b0060001000e080180096
:10061000000006006022b800060220000000d000a2
:100620008180d2000482d2008582d2000000a00026
:100630000202520083825a0003003100020242008b
:1006400083824a000000a1000603e900f3ff3a009c
:10065000000006008001eb00020037008171780085
:100660008301e800828f5100fcff3a000000060081
:100670008001eb000200370061f079008301e8009f
:10068000828f5100fcff3a00000006000002780053
:10069000808f50000a00310082814000808f51001d
:1006a00007003600020240008000eb004362780041
:1006b0008100e800828f500007003200fbff370006
:1006c0000200e0000400320002814000315a78004c
:1006d000828f5000fdff3a00000006008000780085
:1006e0003004e000feff3a00010050000000e90085
:0406f0000000060000
:020000040000fa
:020000040001f9
:0457f00033ff000083
:020000040000fa
:020000040001f9
:0457f400c0fc0000f5
:020000040000fa
:020000040001f9
:0457f800af89000075
:020000040000fa
:020000040001f9
:0457fc00603f00000a
:020000040000fa
:10000800c2420000c2420000c2420000c2420000d8
:10001800c2420000c2420000c2420000c2420000c8
:10002800c2420000b4340000c24200004c3c000050
:10003800c2420000c2420000c2420000c2420000a8
:10004800c2420000c2420000c2420000c242000098
:10005800c2420000c2420000c2420000c242000088
:10006800c2420000c2420000c2420000c242000078
:10007800c2420000c2420000c2420000c242000068
:10008800c2420000c2420000c2420000c242000058
:10009800c2420000c2420000c2420000c242000048
:1000a800c2420000c2420000c2420000c242000038
:1000b800c2420000c2420000c2420000c242000028
:1000c800c2420000c2420000c2420000c242000018
:1000d800c2420000c2420000c2420000c242000008
:1000e800c2420000c2420000c2420000c2420000f8
:1000f800c2420000c2420000c2420000c2420000e8
:10010800c2420000c2420000c2420000c2420000d7
:10011800c2420000c2420000c2420000c2420000c7
:10012800c2420000c2420000c2420000c2420000b7
:10013800c2420000c2420000c2420000c2420000a7
:10014800c2420000c2420000c2420000c242000097
:10015800c2420000c2420000c2420000c242000087
:10016800c2420000c2420000c2420000c242000077
:10017800c2420000c24200001a100000c242000041
:10018800c2420000c2420000c2420000c242000057
:10019800c2420000c2420000c2420000c242000047
:1001a800c2420000c2420000c2420000c242000037
:1001b800c2420000c2420000c2420000c242000027
:1001c800c2420000c2420000c2420000c242000017
:1001d800c2420000c2420000c2420000c242000007
:1001e800c2420000c2420000c2420000c2420000f7
:0801f800c2420000c2420000f7
:020000040000fa
:10020800c2420000c2420000c2420000c2420000d6
:10021800c2420000c2420000c2420000c2420000c6
:10022800c2420000b4340000c24200004c3c00004e
:10023800c2420000c2420000c2420000c2420000a6
:10024800c2420000c2420000c2420000c242000096
:10025800c2420000c2420000c2420000c242000086
:10026800c2420000c2420000c2420000c242000076
:10027800c2420000c2420000c2420000c242000066
:10028800c2420000c2420000c2420000c242000056
:10029800c2420000c2420000c2420000c242000046
:1002a800c2420000c2420000c2420000c242000036
:1002b800c2420000c2420000c2420000c242000026
:1002c800c2420000c2420000c2420000c242000016
:1002d800c2420000c2420000c2420000c242000006
:1002e800c2420000c2420000c2420000c2420000f6
:1002f800c2420000c2420000c2420000c2420000e6
:10030800c2420000c2420000c2420000c2420000d5
:10031800c2420000c2420000c2420000c2420000c5
:10032800c2420000c2420000c2420000c2420000b5
:10033800c2420000c2420000c2420000c2420000a5
:10034800c2420000c2420000c2420000c242000095
:10035800c2420000c2420000c2420000c242000085
:10036800c2420000c2420000c2420000c242000075
:10037800c2420000c24200001a100000c24200003f
:10038800c2420000c2420000c2420000c242000055
:10039800c2420000c2420000c2420000c242000045
:1003a800c2420000c2420000c2420000c242000035
:1003b800c2420000c2420000c2420000c242000025
:1003c800c2420000c2420000c2420000c242000015
:1003d800c2420000c2420000c2420000c242000005
:1003e800c2420000c2420000c2420000c2420000f5
:0803f800c2420000c2420000f5
:020000040000fa
:1006f400454d0000563a000020640000656100008a
:10070400637400006976000061740000696e000083
:1007140067200000636100007272000069650000d8
:10072400720a0000004500004d5600003a20000007
:100734006163000074690000766100007469000060
:100744006e6700002063000061720000726900009f
:10075400657200000a000000454d0000563a000092
:10076400206300006172000072690000657200007d
:10077400206e00006f7400002061000063740000ac
:10078400697600006174000065640000210a0000bd
:10079400004500004d5600003a2000007369000037
:1007a4006e6700006c650000207000006f6c000034
:1007b4006c0a0000004500004d5600003a2000007d
:1007c4007265000073650000746900006e670000c4
:1007d400206f000070650000726100007469000001
:1007e4006e67000020660000696500006c6400000c
:1007f4000a000000454d0000563a00002057000052
:1008040055500000410a0000004500004d5600000c
:100814003a200000000a0000004500004d56000088
:100824003a200000746900006d6500006f750000d7
:100834007420000065720000726f0000720a0000ec
:10084400004500004d5600003a200000627500008b
:100854006666000065720000206f00007665000087
:10086400726600006c6f0000772000006572000063
:10087400726f0000720a0000004500004d5600002f
:100884003a20000074720000616e0000736d000075
:1008940069730000736900006f6e0000206500003a
:1008a400727200006f7200000a000000454d0000e3
:1008b400563a000020660000756e00006374000064
:1008c400696f00006e200000636100006c6c000022
:1008d4002070000061720000616d0000657400000a
:1008e4006572000020650000727200006f720000e3
:1008f4000a000000454d0000563a00002057000051
:1009040055500000420a0000004500004d5600000a
:100914003a2000006361000072640000207300004c
:10092400656c0000656300007465000064200000cd
:10093400004500004d5600003a20000063610000ad
:100944007264000020610000637400006976000096
:1009540061740000656400000a000000454d000059
:10096400563a0000207300007461000072740000a5
:10097400696e000067200000707200006576000058
:10098400616c00006964000061740000696f00001c
:100994006e20000061700000706c0000696300004c
:1009a40061740000696f00006e2e00000a000000f0
:1009b400454d0000563a00002070000072650000aa
:1009c400766100006c6900006461000074690000d5
:1009d4006f6e000020610000707000006c69000000
:1009e40063610000746900006f6e000020660000ff
:1009f400696e00006973000068650000642e0000e1
:100a04000a000000454d0000563a00002070000026
:100a140072650000766100006c690000646100008a
:100a2400746900006f6e00002061000070700000a7
:100a34006c69000063610000746900006f6e00005f
:100a440020730000746f0000707000006564000083
:100a54002e0a0000004500004d5600003a20000018
:100a64007374000061720000746900006e67000016
:100a7400206400006967000069740000616c000074
:100a840020610000707000006c6900006361000068
:100a9400746900006f6e00002e0a0000004500001b
:100aa4004d5600003a2000006469000067690000a8
:100ab400746100006c20000061700000706c000024
:100ac4006963000061740000696f00006e2000001b
:100ad400666900006e6900007368000065640000c8
:100ae4002e0a0000004500004d5600003a20000088
:100af4006469000067690000746100006c200000f4
:100b040061700000706c0000696300006174000093
:100b1400696f00006e200000737400006f700000a5
:100b240070650000642e00000a00000025680000c3
:100b340068780000004500004d5600003a2000008f
:100b44006e6f000020650000727200006f7200007a
:100b54000a000000454d0000563a000020630000e2
:100b64006f6c00006c690000736900006f6e000018
:100b740020650000727200006f7200000a0000001d
:100b8400454d0000563a000020700000726f0000ce
:100b9400746f0000636f00006c2000006572000039
:100ba400726f0000720a0000004500004d560000fc
:100bb4003a20000074720000616e0000736d000042
:100bc40069730000736900006f6e00002065000007
:100bd400727200006f7200000a000000454d0000b0
:100be400563a000020740000696d0000656f000033
:100bf4007574000020650000727200006f720000be
:100c04000a000000454d0000563a0000206900002b
:100c14006e740000657200006e6100006c200000bc
:100c240065720000726f0000720a00000045000047
:100c34004d5600003a200000737400006f700000ed
:100c4400706500006420000065720000726f00008f
:100c5400720a0000004500004d5600003a200000d2
:100c6400756e00006b6f0000776e00002065000059
:100c7400727200006f720000206300006f64000055
:100c8400650a0000004500004d5600003a200000af
:100c9400506f00006c6c0000696e0000672000005b
:100ca4002e2e00002e0a0000004500004d560000c4
:100cb4003a200000526500006d6f00007665000068
:100cc4002063000061720000642000002e2e0000ea
:100cd4002e0a0000004500004d5600003a20000096
:100ce400756e00006b6f0000776e0000206d0000d1
:100cf40065730000736100006765000020630000f5
:100d04006f640000650a0000004500004d560000b5
:100d14003a200000432d00004150000044550000db
:100d2400200000000a000000454d0000563a000073
:100d3400205200002d4100005044000055200000c6
:100d4400000000001a870000ec860000ca8600003c
:100d54001e87000006000000ff09000001a100003a
:100d640001190000012900004015000000260000c0
:100d7400ff0000007508000095400000810000009d
:100d8400190100002940000091000000c00000008b
:100d94002203000041000000530000003300000063
:100da4003900000031000000310000002000000084
:100db400450000004d000000560000002000000027
:100dc400420000006f00000061000000720000009b
:100dd400640000002e0300006100000075000000a4
:100de400730000007400000072000000690000003d
:100df400610000006d000000690000006300000055
:100e0400720000006f000000730000007900000011
:100e14007300000074000000650000006d00000015
:100e240073000000200000004100000047000000a3
:100e34000403000009040000090200002900000066
:100e44000101000000c00000fa09000004000000d5
:100e5400000200000300000000000000092100005f
:100e64001101000000010000221d00000007000025
:100e74000581000003400000000100000705000098
:100e84000103000040000000010000001201000006
:100e9400000200000000000000080000251300000c
:100ea40002c800000200000001020000000100006e
:100eb4004153000033390000313100002046000066
:100ec40057200000763000002e3200002e32000041
:100ed4002028000042750000696c0000743a00008c
:100ee400204e00006f760000203200003920000000
:100ef400323000003131000020310000343a00006b
:100f0400353800003a320000362900000052000053
:100f1400454700003a20000025680000687800007a
:100f24003a20000025680000687800000a000000ec
:100f3400546500007374000020520000454700000f
:100f44003a20000025680000687800003a2000007c
:100f540025680000687800000a000000454d000084
:100f6400563a0000206100006e6100006c6f0000c2
:100f7400672000007365000074740000696e00004f
:100f8400677300003a2000002568000068780000bc
:100f94002568000068780000256800006878000073
:100fa4002568000068780000256800006878000063
:100fb4002568000068780000256800006878000053
:100fc40025680000687800000a000000454d000014
:100fd400563a000020730000657400007469000034
:100fe4006e6700007320000061700000706c0000e8
:100ff40069650000640a0000000a000000000000a7
:10100400256800006878000020250000686800005a
:101014007820000025680000687800002025000082
:1010240068680000782000002568000068780000e7
:101034002025000068680000782000002568000072
:10104400687800002025000068680000780a000025
:10105400002500006868000078200000000a0000f5
:101064000000000000a40000040000000e32000094
:1010740050410000592e000053590000532e000027
:1010840044440000463000003100000000a4000089
:10109400040000000e32000050410000592e0000f0
:1010a40053590000532e0000444400004630000011
:0410b4003100000007
:020000040000fa
:1010b8000000fa009ec0a900f00f200070248800ec
:1010c800502488002000200030258800a824ef0044
:1010d8008644a900f0092000802488006024880044
:1010e8008804a800010021004808de00c024880008
:1010f8009424a8009624ef00ac24ef009424a900bf
:101108000001eb00010078000018eb000018eb006c
:101118000201e800e80f5100fbff3a00d000200070
:10112800502588008ac4bf000038a300050032009b
:1011380082007800512488008ac4bf000038a300c8
:10114800fcff3a005e70ef005270ef0053d0bf0012
:101158005370ef0054d0bf005470ef0094a4a9005e
:101168000000eb00c3042100220421008000780065
:1011780001b07900013079000080e800e40f5000e8
:10118800fbff3a008000210060828800010078009f
:1011980057f0b700c18288000080fa0000000600fe
:1011a8000000fa000001eb008000eb00400720007f
:1011b8007f1a07008284a90000012000002488000b
:1011c8000080fa00000006000000fa008284a800ef
:1011d80000012000502488000001eb008000eb0093
:1011e80050072000721a07000080fa00000006006d
:1011f8000000fa00aac4bf000018a30006003200cd
:10120800428280009240900000c8b30080cf500016
:1012180005003200aa24a9000008200050248800f4
:101228000080fa0000000600608280009040900074
:1012380040c8b30080cf5000f6ff3a006840400035
:1012480010419800aa24a900f3ff37000000fa0013
:1012580040828000104278000481fb0031052100a3
:10126800914078008180fb0054d0bf004800dd0029
:1012780001007000800f51000500360053d0bf00f8
:101288004105210091407800004278000081fb0070
:1012980031052100914078008180fb0054d0bf00c7
:1012a8004800dd00010070000200500031052100f7
:1012b8009140780053f0b7004800de004105210056
:1012c8009140780054f0b7000404e00015003200a3
:1012d8008041eb000001eb006502210001052100bf
:1012e800914078008180fb0051d0bf004800dd00ac
:1012f8000100700062d87a00010521009140780051
:1013080050f0b7004800de00110521009140780038
:1013180051f0b7008341e8000201e800834f520012
:10132800eeff3a0031052100914078008180fb00f2
:1013380054d0bf004800dd00010070000e003200ec
:1013480081c0b3003082800001487800318280007b
:1013580060022100900098004082800010409000b8
:101368000068a3001e00320080c8b30090409800b7
:101378000080fa000000060081c0b30030828000bf
:101388000148780031828000e00221009000980036
:1013980040c8b30090409800510521009140780062
:1013a8008180fb0056d0bf004800dd0001007000be
:1013b8000700320051052100914078008180fb0030
:1013c80056d0bf004800dd00010070000000010099
:1013d80052f0a9000080fa0000000600e6ff37007e
:1013e80080ccb300904098000080fa00000006000e
:1013f800e1ff37000000fa008040eb0001007800b0
:1014080040f0b70060828000114098006082800040
:101418000020a200114098005250e2000f003d0049
:1014280051052100914078008180fb0056d0bf0013
:101438004800dd000100700007003200510521005e
:10144800914078008180fb0056d0bf004800dd0045
:10145800010070000000010052f0a9000080fa00ad
:10146800000006000000fa0040d0bf00e24f500024
:1014780011003200dfff07003a10e20003003200db
:101488003a30ef000080fa000000060081c0b30087
:10149800308280000148780031828000e00221001b
:1014a80090009800c0c8b300904098000080fa00ef
:1014b80000000600f5ff370064ff07000080fa000f
:1014c80000000600f1ff37000000fa00f1052100d6
:1014d800914078008180fb0060d0bf004800dd00ab
:1014e8000100700084002000e70f50000b003e0050
:1014f800f1052100914078008180fb0060d0bf0099
:101508004800dd00010270004150e2007300320023
:1015180041d0bf00e14f500073003200628280006a
:1015280012409000c820de00014070001041980071
:101538006082800004487800f1052100914078001d
:101548008180fb0060d0bf004800dd000100700012
:1015580004005000f1052100914078005ff0b700c9
:101568004800de00010621009140780060f0b700d5
:1015780060022100f08188005ed0bf000008a3004f
:101588002c003a008001eb000400e00002003a0061
:101598000080fa0000000600f2818000c1052100e9
:1015a800914078008180fb005dd0bf004800dd00dd
:1015b8000100700030597800f2818800c1052100cf
:1015c800914078005cf0b7004800de00d1052100aa
:1015d800914078005df0b7008301e800830f520066
:1015e800ebff3200f2818000c105210091407800b4
:1015f8008180fb005dd0bf004800dd000100700065
:1016080030597800f2818800c105210091407800a6
:101618005cf0b7004800de00d10521009140780059
:101628005df0b7008301e800830f5200daff3a004b
:10163800d7ff37008001eb000400e000d4ff320040
:10164800f2818000c1052100914078008180fb0073
:101658005dd0bf004800dd000100700030597800ff
:10166800f2818800c1052100914078005cf0b70044
:101678004800de00d1052100914078005df0b700f8
:101688008301e800830f5200c1ff3200f28180001d
:10169800c1052100914078008180fb005dd0bf002a
:1016a8004800dd000100700030597800f2818800a0
:1016b800c1052100914078005cf0b7004800de00c9
:1016c800d1052100914078005df0b7008301e80062
:1016d800830f5200daff3a00adff370010c0b300a5
:1016e80041f0b7008dff370020c0b30041f0b700cc
:1016f8008aff37000000fa00881f780094a4a90028
:101708005ed0bf0008c8b3008840600010003a00ef
:101718005250e2004b00350081c0b3003082800097
:101728000148780031828000e00221009000980092
:10173800c0c8b3009040980041c8b30060828000e0
:10174800114098004f0478000080fa00000006005d
:101758005250e200fbff35002ed0bf0088406000e9
:101768003800320034d0bf000080fb005203210053
:10177800124178004811dd0000017100f1052100d7
:10178800914078008180fb0060d0bf004800dd00f8
:1017980001007000800f51000d003100410321004d
:1017a800914078008180fb0035d0bf004800dd0003
:1017b80001007000f1052100914078005ff0b7004a
:1017c8004800de00010621009140780060f0b70073
:1017d8003dff070010c0b30040f0b70081c0b30060
:1017e800308280000148780030828000e2022100c7
:1017f80012009800184098003a30ef0040828000ac
:1018080001487800418280009200980040c8b300e7
:101818009040980010002000d081880061022100cb
:10182800608280001100980081ccb3006082800043
:10183800114098004f0478000080fa00000006006c
:10184800c3ff370020c0b30040f0b70060828000bb
:101858000148780082ccb300608280001240980072
:1018680081c0b30030828000014878003182800056
:101878006002210090009800924098004f04780080
:101888000080fa0000000600b1ff37000000fa00ef
:10189800881f780060828000104090004600de00bb
:1018a800610460004c50aa00c0828000e80f50001c
:1018b8000700320040d0bf00e14f50000e00320058
:1018c800ccfe07004f0478000080fa0000000600f4
:1018d80030d0bf000080fb00b02488009604e200ee
:1018e80015003a0040002000c082880040d0bf00a8
:1018f800e14f5000f2ff3a0060022100618280004f
:1019080090009800f0fe070041d0bf00e24f500061
:10191800130032000804e0000a00320081c8b30056
:1019280060828000114098004f0478000080fa001f
:1019380000000600e6ff370000012000c082880092
:10194800dcff370081ccb300608280001140980032
:101958004f0478000080fa0000000600dcff370022
:1019680041c8b30060828000114098004f0478009d
:101978000080fa0000000600d5ff37000000fa00da
:10198800e10221009140780000c8b30080cf5000e8
:10199800020032000080fa000000060000ccb3000c
:1019a8005ef0b70031d0bf00e24f5000180032009f
:1019b800e34f500033003200e14f50000400320082
:1019c8005e70ef000080fa0000000600f3ff3700a9
:1019d80080742800c1052100914078005cf0b700b0
:1019e8004800de00d1052100914078005df0b70085
:1019f8005fd0bf0020c1b3005ff0b70060d0bf0068
:101a08006070ef000080fa0000000600e3ff370076
:101a180030d0bf000080fb0000004000a16a280011
:101a280060807800c1052100914078005cf0b70023
:101a38004800de00d1052100914078005df0b70034
:101a4800c1052100914078008180fb005dd0bf0076
:101a58004800dd000100700010009000f105210031
:101a6800914078005ff0b7004800de0001062100d1
:101a78009140780060f0b7000080fa00000006008e
:101a8800c6ff370030d0bf00e24f5000ccff3e0009
:101a980030d0bf000080fb0000004000416a2800f1
:101aa80060807800c1052100914078005cf0b700a3
:101ab8004800de00d1052100914078005df0b700b4
:101ac800c1052100914078008180fb005dd0bf00f6
:101ad8004800dd00010070001080fb00f1052100c6
:101ae800914078005ff0b70060d0bf006070ef00f1
:101af8000080fa0000000600a8ff37000000fa0086
:101b08005ef0a800ac24ef000000eb00020021000a
:101b1800820078008018eb008018eb000000e800d5
:101b2800e80f5000fbff3a009424a8004a70ef0029
:101b38009424a900800021006082880042828800e5
:101b48003282880030d0bf0057f0b7005750e2000b
:101b580004003a0000012000c08288000080fa00da
:101b6800000006001200200071052100100020006e
:101b78000f18070000022000c08288000080fa00c9
:101b880000000600f7ff37000000fa002670ef009b
:101b98002770ef002ed0bf007f006000e10f5000db
:101ba80019003200e20f5000190032000000e00076
:101bb8000f0032005e50e2000b003d006002210081
:101bc800c1052100914078005cf0b7004800de00b4
:101bd800d1052100914078005df0b7005e10a800a3
:101be80020c0b3005ff0b7000080fa0000000600d4
:101bf8005ef0a800d0828000e10f5000edff3a00af
:101c08002630a800ebff37005ef0a800e9ff370098
:101c18005ef0a8003250e2000b003d0032d0bf0059
:101c28006f00600000004000c1042100608078005f
:101c3800104090000028a300deff320010c0b3005f
:101c480026f0b700dbff370032d0bf006f0060001e
:101c5800000040002104210060807800f4ff370074
:101c68000200fa0030d0bf00e14f500028003200d7
:101c78003050e20004003a002ed0bf007f406000e0
:101c8800e24f5000020032000080fa000000060017
:101c980032d0bf006f406000fbff32005ef0a8004a
:101ca8003250e20023003d0032d0bf006f006000d8
:101cb80000004000c1042100608f78002fd0bf00d1
:101cc800e34f50002b00320032d0bf006f0060009d
:101cd80000004000a14a2000010040001014a100ab
:101ce8003250e20019003d008040eb001e007800f1
:101cf800114098001e24a20001c4b3001e00780001
:101d0800114098000080fa0000000600e0ff37004c
:101d18002ed0bf007f406000d5ff3a005ef0a800db
:101d28002fd0bf00e34f5000180032005a30ef00a8
:101d3800cfff370032d0bf006f00600000004000c6
:101d480021042100608f7800dcff370081c8b300d0
:101d58001e007800114098001e24a20081ccb30018
:101d68001e007800114098000080fa00000006006c
:101d7800c7ff370041c8b3001e0078001140980023
:101d88000080fa0000000600c1ff370010002000a4
:101d9800d0828800b6ff37000000fa002ed0bf00be
:101da8000046b20006003a002fd0bf000080fb00ba
:101db80001002000eb0f5000e08f580002003600b1
:101dc8000080fa0000000600006001000b003700e8
:101dd8004b003700faff370049003700f8ff37009b
:101de800410037003c003700340037002600370038
:101df800210037000e0037000400370062ff07009b
:101e08000080fa0000000600efff37005ef0a8002f
:101e180032d0bf000080fb00a10421000203210092
:101e280012f078000080fa0000000600e6ff370094
:101e380032d0bf000080fb00a10421000100400057
:101e4800c1052100914078005cf0b7004800de0031
:101e5800d1052100914078005df0b7005e10a80020
:101e680010c0b3005ff0b7005ef0a8000080fa0071
:101e780000000600d4ff370020ff07000080fa00aa
:101e880000000600d0ff370070052100c1052100c1
:101e9800914078005cf0b7004800de00d1052100d1
:101ea800914078005df0b7005e10a80010c0b30044
:101eb8005ff0b7005ef0a800ecff37000001eb0010
:101ec8008000eb0020002000391707000080fa008e
:101ed80000000600bcff3700a8fe07000080fa00db
:101ee80000000600b8ff37005ef0a8008000200060
:101ef800c08288000080fa0000000600b2ff3700a8
:101f080057ff07000080fa0000000600aeff370008
:101f18000000fa0061828000114090000004e00097
:101f280002003d000040eb00904098004170ef0037
:101f38004070ef005fd0bf005f70ef0060d0bf005f
:101f48006070ef005e70ef0093ff07000001eb0088
:101f58008000eb003000200015170700e5fd0700a2
:101f68000080fa00000006000000fa003cd0bf0024
:101f780080017800b30fb2000f003a003cd0bf00d8
:101f8800c00fb20001002100010140004282880018
:101f9800328288004650aa0012409000c043b20026
:101fa80041c3b300814f50000b0032002dfd0700e4
:101fb8000080fa00000006003cd0bf00b00fb2005d
:101fc800e80f5000faff3a0030fe07000080fa00e0
:101fd80000000600f8ff370012009000640221009c
:101fe800840f500004003200c9ff07000080fa0087
:101ff80000000600f0ff3700e00221001001980001
:102008008000780003007800e47078000000e800a1
:10201800e80f5000f4ff3200e47078000000e80098
:10202800e80f5000f8ff3a00efff37003600f800dd
:10203800809fbe00829fbe00849fbe00869fbe0018
:10204800889fbe003400f80000002000a00188002e
:102058000000fa00c0828000e10f50002400320026
:1020680080c4bf000048a3000300320082c4bf0040
:102078000048a30085003a0088c4bf000018a300e8
:1020880011003a008ac4bf000008a30069003a00a2
:102098008ac4bf000048a3005c003a008ac4bf009d
:1020a8000028a3004d003a008a44e20044003500ad
:1020b8008ac4bf000018a30034003a00c082800020
:1020c800e30f500014003e008ec0a9000080fa0003
:1020d8003400f9004f04be004f03be004f02be009b
:1020e8004f01be004f00be003600f9000040060058
:1020f80094c4bf000068a300d9ff3a00f00f200085
:10210800502488008c04a8008c84a800200020009b
:10211800c0828800d2ff37008cc4bf000038a300fb
:10212800e9ff32000044eb00890020008ac4bf00a8
:102138000038a300e4ff3200902480003cf0b70090
:10214800592488003cd0bf00000fb20053003a0069
:1021580085ff07000844e800e44f5400f3ff3a0005
:102168008ec0a9000080fa003400f9004f04be00b8
:102178004f03be004f02be004f01be004f00be001d
:102188003600f90000400600d9ff37008cc4bf00b4
:102198000018a300c9ff3200120020008000eb00e5
:1021a800f0ff270082160700f00f20007024880037
:1021b800c0828000e30f5000c3ff3600d6ff37000f
:1021c8008c44e200baff3d0009fc07008ac4bf0046
:1021d8000018a300b9ff3200ecff37008cc4bf0021
:1021e8000028a300b0ff3200120020008000eb009e
:1021f800300720006e160700400020005024880099
:102208008a44e200aaff3d00edff37008cc4bf00fe
:102218000048a300a1ff3200ebfb070000012000eb
:10222800502488008ac4bf000028a3009eff320003
:10223800eaff37008cc4bf000008a30094ff3200f7
:102248009bfb07009ec0a80040002000c0828800b9
:10225800e00221001080880080c0b30000f0b700c1
:1022680001d0bf006340600001f0b700c0c8b300f0
:102278000170b70010002000502488008ac4bf00f5
:102288000048a30085ff3200e0ff3700000120006e
:1022980000248800c2fb070077ff37000001eb002d
:1022a800c103210020072000411607000844e80068
:1022b800e44f54009dff3a00a9ff37000000fa00e0
:1022c8000080fb00800140000180fb00008041008d
:1022d8004300dd000200210002014000124090008e
:1022e8000074a100104198000104e0000b003a00be
:1022f8002004210082317800124090000064a1007f
:1023080010419800e4004100114090000064a000d2
:10231800904098000080fa0000000600c0042100e8
:1023280082317800124090000064a10010419800aa
:10233800e4004100114090000064a0009040980023
:102348000080fa0000000600f4ff37000000fa00e1
:10235800889fbe00804478000080fb000000400099
:10236800a24a2000017079000184fb000838a3000c
:102378000c003a000828a30003003a004f04be00ee
:102388000080fa000000060011c0b3000940780080
:10239800caff07004f04be000080fa0000000600d4
:1023a800f9ff37008040eb0009407800c3ff0700c1
:1023b8000828a300f1ff3200f3ff37000000fa00fd
:1023c800014178000004e0000d003a0081c0b3002c
:1023d800308280000148780031828000e0022100cc
:1023e80090009800c0c8b3009040980041c8b3005e
:1023f80060828000114098000080fa00000006000a
:102408008080fb00818040000280fb0080804000cb
:10241800c308dd0002002100028140001240900044
:1024280043c8b300034070001041980040002100e9
:102438008080400011409000034070009040980058
:102448000080fa0000000600edff37000000fa00e7
:10245800014378000104e000180032008082fb008c
:1024680085804200c0042100610278000400e00079
:102478000f00320012029800034a780014409000be
:102488000044b200104298001440900081c8b30084
:1024980001407000104298000604e0000c003a0069
:1024a8000580420021042100010040001024a20000
:1024b800040078000080fa00000006008082fb001b
:1024c800858042002004210061027800e7ff370080
:1024d80005804200c1042100010040001024a20030
:1024e800040078000080fa0000000600f3ff3700bf
:1024f8000000fa008040780094c4bf000058a30090
:10250800180032000181fb0002014100c0042100d3
:1025180000014100920178001300be00040420006d
:1025280000006200010020008089be00920178004e
:1025380000042000010020009319680093916800ae
:102548001224a20092007800114090000044b200ca
:102558009040980092007800114090000440680074
:10256800904098000080fa00000006000000fa0081
:102578000000eb00a024880060248800c082880046
:102588000080fa00000006000000fa00c182800006
:102598000100e0000f003a00a124880061248800af
:1025a8002000200030258800412588008644a900a5
:1025b800f009200080248800602488009ec0a800bc
:1025c80094c4bf000008a3000400320010002000db
:1025d800c08288000080fa00000006009404a80069
:1025e80094c4bf000008a300f8ff3a009404a800b0
:1025f80094c4bf000008a300f8ff3200f3ff3700bf
:102608000000fa00a07f88000080fa0000000600a1
:102618000000fa00a07f80000080fa000000060099
:102628000000fa00907f88000080fa000000060091
:102638000000fa00907f80000080fa000000060089
:102648000200fa00889fbe000004be008e007800d9
:1026580030c0b300da0907001e80fb008007b20013
:102668000a003a004749dd004940de0000007100d9
:10267800c948de0080407800e0c0b300a709070021
:102688004f04be000080fa00000006004a49dd0041
:102698004640de0000007100c648de008040780039
:1026a800e0c0b3009d0907004f04be000080fa0097
:1026b80000000600f5ff37000000fa00881f7800c8
:1026c8000001be0000fc2f00f1032000800f510024
:1026d800818f590015003600441add004c10de00c9
:1026e80000007200cc18de0000047800f0ff200023
:1026f8000000610029003a0032c0b300824078002f
:1027080010c1b3002d0a0700c840de00f0c0b300b6
:10271800820907008840780000c1b3007f090700dc
:102728004f0478000080fa00000006004a1add0015
:102738004610de0000007200c618de0000047800b3
:1027480002007800f003b2000e003a0022c0b30085
:1027580031c0b30010c1b300180a0700c840de003a
:10276800f0c0b3006d0907008840780000c1b300cd
:102778006a0907004f0478000080fa00000006008c
:10278800eaff37000804e80022c0b30031c0b300f4
:1027980010c1b300090a0700f0ff37000804e80079
:1027a80032c0b3008240780010c1b300030a0700aa
:1027b800d5ff37000000fa00889fbe00b07f880070
:1027c800c17f880002c2b30001ceb30010c1b300bc
:1027d800fa090700b87f8000c97f80004d48dd00f6
:1027e8004344de0008047000c34cde00c840de002d
:1027f80020c1b300490907008840780030c1b30000
:10280800460907004f04be000080fa0000000600d9
:102818000000fa00b07f8000c17f80000080fa00cd
:10282800000006000400fa00889fbe008a9fbe00d0
:102838008c1f780000067800010578008204780073
:10284800000feb003e1778000903b20020c0b30068
:10285800bc0a070000032000808f54004a003200a1
:1028680000022000808f54003f003200c550de0077
:10287800d0c1b300290907000a447800c350dd001d
:10288800e0c1b3002509070000062000800f5500ad
:1028980026003e008a85fb00884078000c007800fe
:1028a800440a0700f08f54002700320040c0b300ec
:1028b800a40a07008e017800420620008004200048
:1028c80001002000bb0f07000204200003002000c5
:1028d8001e0061000a0032008a8f5500080031008e
:1028e8000b045500820f54001a00360002047800c9
:1028f800824078000c8045002e0a07008885450034
:102908001e01be006800610003003a00e00f51009c
:10291800e08f5900e7ff3a004f0678004f05be00e8
:102928004f04be000080fa00000006000044780052
:1029380080057800884078000c0078001d0a0700a0
:10294800f08f5400d9ff3a0050c0b3007d0a070049
:10295800d8ff3700884078000c804500150a07002a
:1029680088854500e6ff370012c0b3008240780032
:1029780050c0b3009109070060c0b300710a070096
:102988008005eb00cbff370012c0b300824078000f
:1029980050c0b3008909070070c0b300690a070076
:1029a8008005eb00c3ff37001000fa00889fbe00c7
:1029b8008a9fbe008c9fbe00600798008106780041
:1029c800720798006011b800320798004307980012
:1029d8007e0090000008eb000005eb008a057800f7
:1029e8000a0678005a079800e60147000277210096
:1029f80000072400010020006e0f07003e01900030
:102a0800ce019000020078000004b20052003a00a3
:102a1800020078000258a300010032001b002000c9
:102a280000e8a300aa003a000048a30040003200d2
:102a38006000b800100798002107980022c0b30072
:102a48008e007800a0c1b300b10907001e447800c9
:102a58000874a1000e81e80040002000010f20004a
:102a6800a20f07001e4090000080fb000058a30042
:102a78000200320011002000510798007100600028
:102a8800050032001e009000ae0090000150a0002a
:102a98001007980021079800f40fe2006200320046
:102aa8001e019000ae019000640061005a003a00d7
:102ab8000348a30058003a000002eb000358a300a3
:102ac80055003a000368a300060032000880fb00a6
:102ad80000004500917f8000810f50000100310007
:102ae800140020000378a3004d0032000880fb008a
:102af80080004500907f8000808f500048003100a2
:102b0800e18f5000460036000c00e00084003a00d7
:102b180020c0b3000b0a070010c1b300090a070060
:102b28000c0578008c0578003e019000ce019000dd
:102b3800e00f5100e08f5900abff3a0061ff2f0012
:102b4800010078004f06be004f05be004f04be00ce
:102b58000080fa00000006000004200001002000a8
:102b68002147980022c0b3008e007800a0c1b300ae
:102b7800670907009e4478000974a1008e80e80068
:102b880000c3b3008e0807002e4090000038a30051
:102b98001b0032000904e0004a0032008a00780075
:102ba80009447800eacf540001003600a8c0b300f9
:102bb8000880fb00000545008a8f5600050031009b
:102bc80001c456000880fb00008540001200200068
:102bd800520798006e01900001004100884078007b
:102be800ab09070088c454008e80e80000c3b30016
:102bf800730807002e4090000038a300e5ff3a0054
:102c08003e019000ce0190000240a00032079800db
:102c1800430798007eff370014002000a9ff370003
:102c28000400e000b8ff3a000880fb008a04400076
:102c38008d8f54002a003e00ee00900001004500f0
:102c48008840780092090700f02fef007e0190007d
:102c5800090978001e019000ae019000640061002f
:102c6800e1ff2f00b6ff3a00a1ff2f000348a300a1
:102c7800b3ff3a00d1ff2f000378a300b0ff3a005a
:102c8800c1ff2f000368a300adff3a00b1ff2f007a
:102c98000358a300aaff3a0081ff2f005e009000ae
:102ca8000000e000a6ff3a00000078004f06be00d2
:102cb8004f05be004f04be000080fa000000060069
:102cc800a5ff37003e019000ce01900050ff37006d
:102cd8000b00e000120032001c00200052ff3700f9
:102ce8008ac056006e0190000a004100680907007a
:102cf8008d0478001000200050079800f02fef0096
:102d08007e019000090978001e019000ae01900034
:102d180064006100e1ff2f0089ff3a00d2ff37000d
:102d280090ff2f004f06be004f05be004f04be00a7
:102d38000080fa000000060087ff37000800fa004c
:102d4800889fbe008a9fbe008c9fbe001007980017
:102d58000106780022079800330798008406780057
:102d68000605be00850478006180620038003a00dc
:102d7800628462002c003a000841780011c0b30058
:102d880050c0b3008d0807000841780001ccb3009b
:102d980090c0b30089080700b5110700004feb0089
:102da8008e00780000c3b300050807001e80fb00f2
:102db8000028a300f9ff3a000a00be003efe070003
:102dc800f0ff2f00f10f20004d0e0700f0ff2f003d
:102dd800f10f2000f10d07009420a80009017800e8
:102de8008c0078001e0090008efe07000d01780010
:102df800be0090002e009000ebfe07000004780053
:102e0800f0ff2f00f10f2000110e07009420a900f9
:102e1800080078004f06be004f05be004f04be00f4
:102e28000080fa00000006000041780011c0b300dd
:102e380050c0b3006108070002c4b30001ccb3005e
:102e480090c0b3005d08070089110700d3ff370061
:102e580012c0b3008240780050c0b3005708070082
:102e680002c8b30001ccb30090c0b30053080700f8
:102e78007f110700c9ff37000000fa0030419000b9
:102e88008248780020429000944098001001be00cb
:102e9800481add004811de0002017200c819de0080
:102ea800a240980010417800b2409800404290003b
:102eb800c440980050419000d24098006042900071
:102ec800e440980070409000f04098000080fa00bc
:102ed800000006000000fa0011427800c822dd0058
:102ee80004002000114190008281fb0002002000b4
:102ef8000202720083827200214190004811dd00b5
:102f080003002000020272008382720031419000a7
:102f18000281fb0003002000021872000390720077
:102f28004141900042409800514190005240980021
:102f38006141900062409800f14090007140980013
:102f48000080fa00000006000600fa00889fbe0014
:102f58008a9fbe008c9fbe000006be00030078005a
:102f68000300e0000f003200e1f9200091407800f2
:102f7800e1419800f3f920009341780073409800ec
:102f8800d4f920001442780054409800c47c800092
:102f9800d57c80000488be00c5f9200095427800e1
:102fa80045409800624090009eefb7007240900044
:102fb8009fefb700524090009defb7001202be008d
:102fc800c47c8800d57c8800424090009cefb70004
:102fd8004022ef000404be008001eb0042fa20000a
:102fe800b20f5400a28f5c00450032008301e80054
:102ff80070014100e58f5100f9ff3a000801be0059
:103008000c00be0081f50700000578001b002000b9
:1030180035c0b300054f780036002000e80f500097
:1030280075003e000a00e0008b00320068001500c1
:10303800100798000bd1b900030020000c00be0057
:103048002607980071f507000002be00b37c8000d7
:103058002e039000e48f510054003e004418dd0018
:1030680002fa200082004000c4009800d5009800b1
:10307800a8009800b9009800ec0040001e427800b3
:1030880084707900ee0040008a3079000200400028
:103098000c88be000300e800b07c88009e01900008
:1030a8004218dd0006007000101288009ecfbf0095
:1030b800c800dd00010078004202b70080007800f7
:1030c8009fcfbf000080fb004600dd00008070003d
:1030d80010128800100020002012880042a2a800c8
:1030e80000002800001288000000eb004f06be0018
:1030f8004f05be004f04be000080fa000000060025
:1031080062b89700f2b89700800f5600818f5e0072
:10311800b6ff3a004418dd0001fa20000100400023
:1031280020019000b0019000c27c8800d37c880008
:10313800c04890000183fb007000900068001000f8
:10314800100798009e0190004218dd0006007000ec
:10315800101288009ecfbf00c800dd000100780073
:103168004202b700800078009fcfbf000080fb00bc
:103178004600dd000080700010128800100020005a
:103188002012880042a2a80000002800001288002f
:103198000000eb004f06be004f05be004f04be0006
:1031a8000080fa0000000600d5ff37008001eb0020
:1031b800b37c88004418dd0002fa20008200400039
:1031c800c4009800d5009800a8009800b90098009d
:1031d800ec0040001e42780084707900ee00400048
:1031e8008a307900020040000c88be000300e80025
:1031f800b07c8800a9ff37001b00200032c0b30054
:10320800024f7800c25ddd009e4178008341e900ed
:10321800034f78006158b8000041b8000980b90030
:10322800830140000c00be00f8f407000005780098
:10323800e80f5000160036009e4078000104e000b8
:10324800f0ff3a008a0020000003eb006800150038
:103258001007980077ff37001a002000750020003b
:10326800150798000bd1b900030020000c00be0020
:1032780026079800e5f407000002be00b37c800032
:103288002e039000e48f510074ff3600c7ff37000b
:103298001e4278000483fb000a00e00063ff3a0046
:1032a800edff37000000fa004002ab0001003200d9
:1032b8004012800040a2ab000700320040c2a900c3
:1032c8004022ef004222ef004422ef000000eb0012
:1032d8000080fa00000006004012800040a2ab0007
:1032e800f6ff3a004012800040a2ab00faff32001d
:1032f800f2ff37000000fa0040e2ab00feff3200a8
:1033080040a2ab0003003a004012800040a2ab008c
:10331800fdff32004002ab00010032004012800085
:1033280040c2a9000000eb000080fa00000006007f
:103338000000fa00889fbe0080047800030478002b
:103348000100e0000600320040a2ab0003003a0092
:103358004012800040a2ab00fdff320040c2a9002d
:103368000200e000220032008003eb00070378002f
:1033780002027800e80f5100320036008400200075
:10338800868244008001eb00001280004800de00c5
:1033980067006000e70f5000fbff32003580fb003c
:1033a800401288000603e8008301e800830f5200fa
:1033b800f5ff3a000100e000130032008001eb0045
:1033c8000400e0000800320040a2ab00feff3a0013
:1033d8000100e00012003a00401280008301e8007a
:1033e800830f5200f8ff3a0004015100e0ff3a0051
:1033f8000800e00018003a00080078004f04be00fa
:103408000080fa00000006000800e000f6ff320025
:103418008001eb000400e000ebff3a00f2ff370008
:1034280040c2ab0012003a004012800080f37800de
:103438008703e8008301e800830f5200e2ff3a00a7
:10344800e9ff37000200e000cdff3a000100e0008c
:10345800daff3a00ecff3700a6ff07000000eb0098
:103468004f04be000080fa0000000600e6ff3700a7
:10347800d0ff2f004f04be000080fa0000000600b5
:10348800e1ff37000000fa00889fbe008a9fbe0057
:103498008c1f780000047800810578008304780088
:1034a8000406780002054000000020000000e0004b
:1034b800020032009dcfbf00cff207000900e000f4
:1034c8000600320040a2ab0003003a004012800020
:1034d80040a2ab00fdff320040c2a9000a00e00094
:1034e800240032008002eb00050378008501780093
:1034f8000a017800e80f55004500360082002000d8
:103508008000eb00f40f2000001280004800de006d
:1035180067006000e70f5000fbff3200830f540084
:1035280027003e00441288008301e8008100e8007b
:10353800810f5100f4ff3a000900e0001a00320040
:103548008000eb000200e0000800320040a2ab005f
:10355800feff3a000900e00021003a004012800016
:103568008100e800810f5100f8ff3a00020555007c
:10357800dfff3a000c00e00030003a0000002000b5
:103588000000e000030032009dcfbf009af2070060
:103598000000eb004f0678004f05be004f04be0048
:1035a8000080fa00000006000c00e000efff320087
:1035b8008000eb000200e000e4ff3a00ebff370078
:1035c8006bc079000080fb00401288008301e8008e
:1035d8008100e800810f5100cbff3a00d6ff370089
:1035e80040c2ab0017003a00888f52000d00390026
:1035f8004012800000f37c000603e8008502e80022
:103608008100e800810f5100d0ff3a00d7ff370052
:103618000a00e000baff3a000900e000c8ff3a00db
:10362800e1ff3700401280008502e8008100e800d1
:10363800810f5100c5ff3a00ccff37002dff07006e
:10364800ceff3700d0ff2f004f0678004f05be0091
:103658004f04be000080fa0000000600d2ff3700c9
:103668000000fa00a07528000080fa00000006009b
:103678000200fa00881f780000447800004feb0031
:103688008e007800ce0507001e80fb00801f7800a2
:103698000880fb00801f780090782800801f780041
:1036a800e5010700e68757004f0478000080fa001c
:1036b800000006000200fa00881f78000044780025
:1036c800004feb008e007800110607001e80fb00fb
:1036d800801f78000880fb00801f7800a0792800f0
:1036e800801f7800d4010700e68757004f04780050
:1036f8000080fa00000006000400fa00889fbe005f
:103708008a9fbe008c9fbe000001780010407800a0
:103718000080fb0001002000000eb1000180b10014
:10372800ef0f5000e08f580011003e0000600100cc
:10373800160037001e003700260037002e0037001d
:10374800360037003e003700460037004e0037008d
:1037580057003700060037005f00370004003700c5
:10376800030037000200370001003700630037000c
:1037780090cfb3000080fb004f06be004f05be008f
:103788004f04be000080fa00000006003e0a070051
:103798000040eb000080fb004f06be004f05be0056
:1037a8004f04be000080fa0000000600f7ff370053
:1037b800460a07000040eb000080fb004f06be00f1
:1037c8004f05be004f04be000080fa00000006004e
:1037d800eeff37004b0a07000040eb000080fb00bb
:1037e8004f06be004f05be004f04be000080fa0021
:1037f80000000600e5ff3700500a07000040eb0014
:103808000080fb004f06be004f05be004f04be00ff
:103818000080fa0000000600dcff3700850a070078
:103828000040eb000080fb004f06be004f05be00c5
:103838004f04be000080fa0000000600d3ff3700e6
:10384800ca0a07000040eb000080fb004f06be00dc
:103858004f05be004f04be000080fa0000000600bd
:10386800caff3700e20a07000040eb000080fb00b7
:103878004f06be004f05be004f04be000080fa0090
:1038880000000600c1ff370070ceb30084f0b70017
:103898000040eb000080fb004f06be004f05be0055
:1038a8004f04be000080fa0000000600b7ff370092
:1038b80080ceb30084f0b7000040eb000080fb002e
:1038c8004f06be004f05be004f04be000080fa0040
:1038d80000000600adff37002c0b07000040eb008e
:1038e8000080fb004f06be004f05be004f04be001f
:1038f8000080fa0000000600a4ff370068004100bd
:1039080010079800e7004100010f7800e606410023
:1039180065064100e4054100e30441000285e80032
:103928000204e8001080fb00801f78001180fb0073
:10393800801f78001d80fb00801f78001c80fb0022
:10394800801f78001b80fb00801f78001980fb0017
:10395800801f78001a80fb00801f78001880fb0009
:10396800801f7800027b2800821f78003201070040
:1039780018407800704160004311dd0001c8b300b1
:1039880010c0b3008d0507001880fb006f006000b1
:10399800f28757000000e00051003a0002c4b3006b
:1039a8008240780010c0b300840507001a81fb002c
:1039b8006f0161004311dd000274a00081cfb300e4
:1039c80010c2b3007d0507009940780066c1600009
:1039d8004311dd0001c3b30020c0b3007705070021
:1039e8009944780061c164004711dd0001c8b30043
:1039f800a0c0b300710507000041eb0021c1b3006e
:103a0800b0c0b3006d0507001b81fb004511dd0048
:103a18001c80fb00670060004200dd00004171006f
:103a2800c1cfb300c0c0b300640507009d80fb0090
:103a3800c408dd001e017800124178006f40610063
:103a480080c07000d0c0b300b404070050c1b300f8
:103a58003c0607001e00900010407800ef40600010
:103a680010c0b300ff040700817e2800811f780082
:103a7800f100070010c0b300fdfe0700a0c2b300ac
:103a8800fbfe070010c2b300f9fe070020c0b30018
:103a9800f7fe0700a0c0b300f5fe0700b0c0b300f2
:103aa800f3fe0700c0c0b300f1fe0700d0c0b300aa
:103ab800effe070010c0b300fefe07000040eb0059
:103ac8008f87e9000080fb004f06be004f05be004f
:103ad8004f04be000080fa00000006002bff3700ec
:103ae8000041eb0001c4b30010c0b3003305070068
:103af8001881fb006f0161004311dd000274a00012
:103b080081cfb300a0c2b3002c0507001a81fb00c7
:103b18006f0161004311dd000274a00081cfb30082
:103b280010c2b300250507009940780066c16000ff
:103b38004311dd0001c3b30020c0b3001f05070017
:103b48009944780061c164004711dd0001c8b300e1
:103b5800a0c0b300190507000041eb0021c1b30064
:103b6800b0c0b300150507001b81fb004511dd003f
:103b78001c80fb00670060004200dd00004171000e
:103b8800c1cfb300c0c0b3000c0507009d80fb0087
:103b9800c408dd001e017800124178006f40610002
:103ba80080c07000d0c0b3005c04070050c1b300ef
:103bb800e40507001e00900010407800ef40600008
:103bc80010c0b300a7040700817e2800811f780079
:103bd8009900070010c0b300a5fe0700a0c2b300fb
:103be800a3fe070010c2b300a1fe070020c0b30067
:103bf8009ffe0700a0c0b3009dfe0700b0c0b30041
:103c08009bfe0700c0c0b30099fe0700d0c0b300f8
:103c180097fe070010c0b300a6fe07000040eb00a7
:103c28008f87e900a7ff37000000fa000000eb00cb
:103c3800308488002ca3ef00c1fe2f0001168800f5
:103c480031ed210041168800cd02a800cc62a90000
:103c5800616c20009140780002ceb30082c0600001
:103c68000134a0008000fd00c6e6b7008000fd001a
:103c7800516c20009140780082c060007140b30010
:103c88008000fd00c5e6b7008000fd00816a2000c5
:103c98009140780082c060007140b3008000fd0050
:103ca800a8e6b7008000fd004021a8004001a80058
:103cb800e16820009140780082c060009140b30024
:103cc8008000fd008ee6b7008000fd00216c20001a
:103cd8009140780082c060003140b3008000fd0050
:103ce800c2e6b7008000fd000000fc000080fa007a
:103cf800000006000800fa00889fbe00caff0700ff
:103d0800a4ff200002202c00130020000040220005
:103d1800410f20003310070044a7a8008025200089
:103d28000000e900e10f4000fdff3a0000402200da
:103d3800410f20000a0f070000902000d103200047
:103d4800008fbe0019c0b300494798000044eb003b
:103d58005847980068479800784798008001eb001a
:103d68000e01780000402200410f200076fc070079
:103d78000940780073050700f1c0b30008407800d7
:103d8800e603070081ccb30020c0b300e3030700bb
:103d980050002000f21107009420a80000402200e3
:103da800410f2000350f0700c1f40700f07f2800fd
:103db800801f780020000700a1752800811f780067
:103dc8001d000700f07f2800801f78001a000700f8
:103dd80080c0b3009c110700ebf90700e687570085
:103de800480821002c0f070081ceb30098cf10009f
:103df8000a0032004008210071ceb30090cf1000b5
:103e0800f8ff3a009b0907008470ef00220f0700b3
:103e180081ceb30098cf1000f6ff3a00b80907002a
:103e28008470ef004008210071ceb30090cf1000dd
:103e3800ecff3a00f3ff37000c00fa00889fbe0041
:103e48008a9fbe008c9fbe004ebd970042c0bf0037
:103e58000080fb00c506de0091028000ff3ffc00e9
:103e680000ceb3004260b700910288006800570096
:103e7800300798001a4178000204e00085003200fb
:103e88000004eb0058079800880578004807980058
:103e98008281fb000280fb00010020006a005000c4
:103ea800e0805800e4062000840f5000e08f58009e
:103eb80073003e0000600100840037007000370086
:103ec8006f0037006e0037006d0037006c00370058
:103ed8006b0037006a003700690037006800370058
:103ee8006700370066003700650037006400370058
:103ef8006300370062003700610037006000370058
:103f08005f0037005e0037005d0037005c00370057
:103f18005b0037005a003700590037005800370057
:103f2800570037007100370055003700540037003c
:103f38005300370052003700510037005000370057
:103f48004f0037004e0037004d0037004c00370057
:103f58006f0037004700370046003700450037003c
:103f68004400370043003700420037004100370063
:103f7800400037003f00370041003700400037005d
:103f88003f0037003e0037003d0037003c00370057
:103f98003b0037003a003700390037003800370057
:103fa800a7003700360037003500370034003700e7
:103fb8003300370032003700310037003000370057
:103fc8002f0037002e0037002d0037002c00370057
:103fd8002b0037002a003700290037002800370057
:103fe80027003700960037002500370024003700e7
:103ff8004f0037002200370021003700200037002b
:104008001f0037001e0037001d0037001c00370056
:104018001b0037001a0037001900370088003700e6
:1040280087003700160037001500370014003700e6
:104038007a003700120037001100370010003700ef
:104048007f0037000e0037000d0037000c003700e6
:104058000b0037000a003700090037000800370056
:1040680007003700760037000500370004003700e6
:10407800730037005e009000e10f50007e003200b0
:1040880002407800b00f07005a4178000204e000af
:104098007fff3a0092028000ff3ffc00c568dd0008
:1040a80042c0bf007f4060000140700042e0b7009e
:1040b800920288000000eb004f06be004f05be00cc
:1040c8004f04be000080fa0000000600d0c0b30014
:1040d8009d0f07001a4078009b0f07005a4178008f
:1040e8000204e0006aff3a00eaff3700e10f5400db
:1040f800bf003200180020000000eb0040079800c5
:104108005a4178000204e00061ff3a00e1ff3700fd
:10411800e10f54006000320000c3b3008a0f0700ab
:104128005a4178000204e00059ff3a00d9ff3700ed
:104138001c002000e10f540044003a004e02900099
:10414800e20f52009c0032004e029000e10f520034
:10415800560032003e029000c401780034079800ef
:10416800450020004228dd0064035000f0002000d4
:104178008603dd000500e900000147008004eb002c
:104188000902780008c3b300078061000600de005a
:1041980080407800004978006a405000e54f5000a0
:1041a8006a003e0070c3b3000c00e00001003a0052
:1041b80070c5b30001494000924f14002a00320034
:1041c8008904e800c419dd000402e8000201e900de
:1041d800848f5200ecff3a000e8042000048eb004a
:1041e8000b00e00001003a0085057800898f550032
:1041f8005b003900898555003a003a000900e00063
:1042080044003a000004eb00880578005a41780021
:104218000204e0001eff3a009eff37000800e0009d
:104228005f0032004e0090000000e8004007980050
:104238005a4178000204e00015ff3a0095ff370064
:104248000006eb00e10f5400bcff3200024078008a
:104258003d0f07008005eb005a4178000204e0009a
:104268000bff3a008bff37000900e000d5ff320052
:104278008904e800d3ff370000fd2f008085410046
:104288000002eb00540798005a4178000204e0004d
:10429800fffe3a007fff3700580798005a41780020
:1042a8000204e000fafe3a007aff37003e00900070
:1042b800c001780030079800450020004228dd0042
:1042c80064035000f00020008603dd000500e900cb
:1042d800000147008004eb000902780008c3b3001e
:1042e800a9ff37000004eb0000c3b300160f070056
:1042f8000804e800888f5500c0ff320000c3b300ef
:10430800110f07000804e800888f5500f6ff3a00ef
:10431800baff37000900e900800547000004eb00f8
:104328002b407800080f07000804e800888f540025
:10433800b4ff32002b407800030f07000804e800a0
:10434800888f5400f6ff3a00aeff370000c3b30071
:1043580000c94000924f140099ff3a00c2ff37008d
:104368000900e000a7ff32000900e90080054700c6
:104378000004eb002b407800f30e07000804e80067
:10438800890f54009fff32002b407800ee0e070083
:104398000804e800890f5400f6ff3a0099ff370037
:1043a80080c6b300e80e07005a4178000204e00016
:1043b800b7fe3a0037ff37003e009000c001780092
:1043c80030079800840278004228dd00640350001a
:1043d800f00020008603dd000500e9000001470029
:1043e8008004eb000902780008c3b30066ff3700b9
:1043f80050c2b300d40e07000004eb004807980031
:104408005a4178000204e000a1fe3a0021ff37007b
:104418000000fa00889fbe008a9fbe008c9fbe00e5
:10442800800678000105780067866000e78f5000f5
:1044380002003600c30dde0025003a000c00e00043
:10444800080032004350de004300dd00800f5500b5
:1044580009003e0010832800801f780076fe0700c0
:104468008f87e9004f06be004f05be004f04be000f
:104478000080fa0000000600808446000004eb007b
:10448800000555003980fb00801f7800b0822800a5
:10449800801f780068fe07000804e800e4875700da
:1044a800880f5500ebff32003980fb00801f780031
:1044b800b0822800801f78005ffe07000804e8002b
:1044c800e4875700880f5500eeff3a00e1ff3700f8
:1044d800000478008004eb00784090000080fb0026
:1044e800801f7800684090000080fb00801f7800e3
:1044f800584090000080fb00801f780048409000e2
:104508000080fb00801f7800384090000080fb008e
:10451800801f7800284090000080fb00801f7800f2
:10452800184090000080fb00801f78001880fb0076
:10453800801f780020802800801f78003efe07003a
:104548008904e80068044400f2875700898f550001
:10455800baff3200784090000080fb00801f78008e
:10456800684090000080fb00801f78005840900051
:104578000080fb00801f7800484090000080fb000e
:10458800801f7800384090000080fb00801f780072
:10459800284090000080fb00801f780018409000a1
:1045a8000080fb00801f78001880fb00801f7800c7
:1045b80020802800801f78001ffe07008904e8007b
:1045c80068044400f2875700898f5500c2ff3a00fb
:1045d8009aff37000000fa0090788800106fef000b
:1045e8000000eb000080fa00000006000600fa0058
:1045f800889fbe008a9fbe008c9fbe0080437800c3
:1046080001047800830578000405780085047800a3
:1046180006067800e300410000102000808f50005b
:1046280006003600b0ff2f004f06be004f05be0043
:104638004f04be000080fa00000006000700780062
:1046480010eeb7000200e000060032000000eb00a8
:1046580011e12000e87078000000e800800f5100a8
:10466800fcff3a0090788000304890000080fb0002
:1046780004182100050020000000e90003003300b1
:104688000402420085824a00fbff370014079800a5
:10469800250798008200e8008002eb001e039000c6
:1046a800ae039000090278008a0178000b017800b7
:1046b80000e120004f0a07008000fb008046eb0065
:1046c8008001eb0028c0b300190178000010200019
:1046d800800f51001d003e00e28f40001b00320099
:1046e8000100e0003f003200e18f40002d00320061
:1046f8000c00e00034003a0010cfbf0021cab3001c
:104708000140700010eeb7008002eb001e0390001d
:10471800ae039000090278008a0178000b01780046
:104728001100200000e12000320a07008000fb0091
:104738000844e90013002000e3ff3a00190178005b
:1047480000102000800f510007003600e0ff2f0006
:104758004f06be004f05be004f04be000080fa00a1
:1047680000000600b5ff3700e28f4000f7ff320077
:104778000100e00055003a0023cfb3009bcf1100a1
:104788000a003200828ce900010078004f06be0062
:104798004f05be004f04be000080fa00000006006e
:1047a800a6ff3700e1cf5600d1ff3600c0ff2f002b
:1047b8004f06be004f05be004f04be000080fa0041
:1047c800000006009dff3700e10f560095ff3a00f4
:1047d80010cfbf0021cbb3000140700010eeb7002e
:1047e800c9ff370025cfb3009bcf1200e5ff3a0081
:1047f8000300e00033003a0083467800e40f5100dc
:10480800d2ff3a00e2cf5600e8ff3e001b4090007e
:10481800f1c3b30001446000ccff3200b4032000b0
:1048280005002000b0c3b300804f540002003e00d2
:104838000882fb0005002000907880003048900036
:104848000080fb0002182100030020000000e9009e
:10485800030033000201410083814900fbff370058
:104868000413b8000590b9000700400003a1b9007f
:10487800820340000000200001462000800f530002
:10488800818f5b00010036000003be0020cfb3001b
:10489800004f7800184798008002eb000902780062
:1048a8008a0178000b017800210020000e007800b2
:1048b800d00907008000fb008001eb0028c0b3008e
:1048c80081ff37008d46e800ccff3700d0ff2f006e
:1048d800e18f4000b5ff32004f06be004f05be0015
:1048e8004f04be000080fa000000060053ff3700a6
:1048f8000c00fa00889fbe008a9fbe008c9fbe00f5
:10490800100798002107980032079800430798007d
:1049180054079800000feb00907880004048900002
:10492800e34f50008b00320057003600e54f50002f
:104938009a00320090003900e64f5000a000320083
:10494800e74f5000a70032000d102000db0f2000b9
:104958000004eb00084678001e05900007f12000cf
:1049680097437800ae0490008b8f540028003600df
:104978002741b300160020008e02780004102000a2
:1049880003e120000b0178008a00780007407800d6
:1049980016ff0700800178000000e00053003a008d
:1049a800100020009e0f100063003a0010cebf00d8
:1049b8000081fb00820078000100a100200a20008d
:1049c800808f50005c003a0007f120009743780080
:1049d800e10061000780fb00808f50003b003a0037
:1049e8000704a2000700780010efb700088046000f
:1049f80063045000034678009e009000088540003c
:104a08002e009000880450008b8f5400d8ff3e0081
:104a18000044eb000714a000160020008e02780066
:104a28000410200003e12000090178008a007800c2
:104a380007407800edfe0700800178000000e000e4
:104a48002a003a0010cebf000081fb0082007800e7
:104a58000100a100200a2000808f500029003a00a0
:104a6800e100610007f12000974378000780fb0010
:104a7800808f500030003200e24f54002e00320088
:104a88000844e800e3ff37008d0120005b012000a7
:104a9800e14f5000aeff3200e8864600db012000ff
:104aa800e14f5000aaff3e000d012000db0020006e
:104ab8000004eb00084678001e05900007f120006e
:104ac80097437800ae049000a7ff3700e14f5600e7
:104ad80019003e000c46e800a3ff3700ce00900006
:104ae8008881500083003a00b3ff2f00030078004c
:104af8004f06be004f05be004f04be000080fa00fe
:104b080000000600030478009e0178000300e0001e
:104b18000900320004e12000144278008480fb0080
:104b2800010078000000a100e20f500036003200ba
:104b3800f20f500034003200e0ff2f004f06be0095
:104b48004f05be004f04be000080fa0000000600ba
:104b5800ecff37008d0220005b0220000004eb0010
:104b6800084678001e05900007f12000974378005a
:104b7800ae0490007cff37000d032000db0220000c
:104b88000004eb00084678001e05900007f120009d
:104b980097437800ae04900073ff37000d0420009f
:104ba800db0320000004eb00084678001e05900097
:104bb80007f1200097437800ae0490006aff3700a1
:104bc8000d062000db0520000004eb0008467800f5
:104bd8001e05900007f1200097437800ae0490006e
:104be80061ff37000d082000db0720000004eb0000
:104bf800084678001e05900007f1200097437800ca
:104c0800ae04900058ff370002f1200012417800ee
:104c1800e18060000280fb00808f5000c6ff3a00f0
:104c2800824278000504a2000500780010efb70062
:104c380008804100ce009000810f5000a7ff3e0081
:104c48008000eb00e18f51000a0032003e00900026
:104c58000001440003e120008100e80061d97900e7
:104c68001e00e900810f5000fbff3e0004e1200018
:104c780014427800010444007000620014003200fd
:104c880020cab30000c0720010eeb7000003eb00aa
:104c98008e0278000410200003e12000060178004d
:104ca8008600780051fe0700800178000000e000cf
:104cb80095ff3200030078004f06be004f05be0086
:104cc8004f04be000080fa00000006008dff370088
:104cd800de00900088087800000078004f06be00cb
:104ce8004f05be004f04be000080fa000000060019
:104cf80084ff37003e0090000801400014e12000c6
:104d0800840078003159780004804100810f5000f8
:104d1800fcff3a00b3ff2f0074ff37000200fa00cf
:104d2800881f7800f2c3b300024f60001147980053
:104d380028042000184478000884fb004544de005d
:104d480091028000ff3ffc0000ceb3004260b70034
:104d580091028800cd02a900140020008001eb0018
:104d6800030178008e00780020002000c5f90700b4
:104d7800cd02a80092028000ff3ffc004544dd0000
:104d88002104200091407800ffc0600088c07000b6
:104d98008000fd0042e0b7008000fd00920288001c
:104da800d1ff2f000004e00001003a008000eb0072
:104db800010078004f0478000080fa000000060027
:104dc8000200fa00881f7800f043b2000064a000d7
:104dd800004f780028042000184478000884fb005d
:104de8004544de0092028000ff3ffc0000ceb30085
:104df8004260b70092028800cd02a900140020008a
:104e080081017800040178008e00780004007800a1
:104e18009cf90700cd02a80092028000ff3ffc0029
:104e28004544dd002104200091407800ffc0600067
:104e380088c070008000fd0042e0b7008000fd00df
:104e480092028800d1ff2f000004e00001003a0020
:104e58008000eb00010078004f0478000080fa0021
:104e6800000006000400fa00881f7800c2cfb300d3
:104e7800024f7800f043b20010479800214798008d
:104e880028042000184478000884fb004544de000c
:104e980091028000ff3ffc0000ceb3004260b700e3
:104ea80091028800cd02a900140020008001eb00c7
:104eb800030178008e0078003000200071f90700a7
:104ec800cd02a80092028000ff3ffc004544dd00af
:104ed8002104200091407800ffc0600088c0700065
:104ee8008000fd0042e0b7008000fd0092028800cb
:104ef800d1ff2f000004e00001003a008000eb0021
:104f0800010078004f0478000080fa0000000600d5
:104f18000200fa00881f7800c2cfb300024f780061
:104f2800f043b2000064a000104798002804200055
:104f3800184478000884fb004544de009202800093
:104f4800ff3ffc0000ceb3004260b7009202880029
:104f5800cd02a90014002000810178000401780026
:104f68008e0078002000200046f90700cd02a80036
:104f780092028000ff3ffc004544dd002104200030
:104f880091407800ffc0600088c070008000fd007c
:104f980042e0b7008000fd0092028800d1ff2f0098
:104fa8000004e00001003a008000eb0001007800f6
:104fb8004f0478000080fa00000006000200fa00a2
:104fc800889fbe008a9fbe00804478000145780013
:104fd80002447800004feb008e00780078ff07004d
:104fe800804578000ac0ea001e40600088407000d2
:104ff800014f78000940780048ff070000c075009d
:105008008000eb0005003a00010078004f05be0063
:105018004f04be000080fa0000000600d0ff2f00f9
:105028004f05be004f04be000080fa0000000600d5
:10503800faff37000200fa00889fbe008a9fbe0070
:1050480080417800810478000244780042c0bf00a3
:105058000080fb004505de0091028000ff3ffc0058
:1050680000ceb3004260b700910288000204e0005d
:1050780006003a008000eb00010078004f05be00f2
:105088004f04be000080fa0000000600f0c3b30021
:1050980000cf6100cd02a9000002eb008401780076
:1050a800040178008e00780010002000f5f8070051
:1050b800804578000880fb00140020008001eb0088
:1050c8000301780089007800eef80700cd02a800f7
:1050d80093028000ff3ffc004551dd0021042000c1
:1050e80091407800ffc0600082c070008000fd0021
:1050f80042e0b7008000fd009302880000c0750000
:10510800d1ff2f00dcff3a008000eb00daff370008
:105118000200fa00881f7800f043b2000064a00083
:10512800004f780028042000184478000884fb0009
:105138004544de0093028000ff3ffc0000ceb30030
:105148004260b70093028800cd02a9000281fb00eb
:1051580014002000810178008e0078000400780097
:10516800c8f80700cd02a80092028000ff3ffc00ab
:105178004544dd002104200091407800ffc0600014
:1051880088c070008000fd0042e0b7008000fd008c
:1051980092028800d1ff2f000004e00001003a00cd
:1051a8008000eb00010078004f0478000080fa00ce
:1051b800000006000200fa00889fbe008a9fbe0019
:1051c800000578008144780000c8b300004f7800db
:1051d8000104e00006003a008000eb0001007800be
:1051e8004f05be004f04be000080fa000000060014
:1051f80028042000184478000884fb004544de0099
:1052080091028000ff3ffc0000ceb3004260b7006f
:1052180091028800cd02a900140020008001eb0053
:10522800030178008e0078000400780095f80700e4
:10523800804578000980fb00140020008001eb0005
:10524800030178008a0078008ef80700cd02a800d4
:1052580092028000ff3ffc004544dd00210420004d
:1052680091407800ffc0600088c070008000fd0099
:1052780042e0b7008000fd009202880000c075007f
:10528800d1ff2f00d5ff3a008000eb00d3ff370095
:105298000200fa00881f7800800178000141780038
:1052a800f0cbb300004f78000104e00005003a009d
:1052b8008000eb00010078004f0478000080fa00bd
:1052c8000000060028042000184478000884fb0029
:1052d8004544de0091028000ff3ffc0000ceb30091
:1052e8004260b70091028800cd02a9000281fb004c
:1052f800140020008e0078000400780061f8070090
:10530800cd02a80092028000ff3ffc004544dd006a
:105318002104200091407800ffc0600088c0700020
:105328008000fd0042e0b7008000fd009202880086
:10533800d1ff2f000004e000deff3a008000eb0000
:10534800dcff37000200fa00881f7800f043b20043
:1053580001ccb300014f70002804200018447800e5
:105368000884fb004544de0091028000ff3ffc00fa
:1053780000ceb3004260b70091028800cd02a900b8
:10538800140020008001eb00030178008e007800f3
:10539800040078003bf80700cd02a80092028000c4
:1053a800ff3ffc004544dd002104200091407800c7
:1053b800ffc0600088c070008000fd0042e0b700b8
:1053c8008000fd0092028800d1ff2f000004e00059
:1053d80001003a008000eb00010078004f047800db
:1053e8000080fa00000006000400fa00881f780018
:1053f8000e047800001ceb000000eb0062060700ba
:105408000000eb00a406070025002000264e20001f
:10541800070020000e027800850178000801780056
:105428006000b800f306070000c0ea000080fb0037
:105438000000e9004f00de000004a2000080fb002d
:105448004f0478000080fa00000006000e00fa0001
:10545800889fbe008a9fbe008c1f78000045780098
:105468008105780002067800000feb00670447000a
:10547800004c780000c2b300004f98008e84e8000a
:1054880015002000264e2000070020000e0278009c
:10549800530020000901780021002000080078004e
:1054a8007f0b0700e64f400006003a00a0ff2f00e0
:1054b8004f0678004f05be004f04be000080fa007a
:1054c800000006000004e000070032000080eb0046
:1054d8004f0678004f05be004f04be000080fa005a
:1054e80000000600f7ff3700510020009e8f1000d3
:1054f800f6ff3a000041780089007800e60147008d
:1055080031416900818f5100fdff3a00d0ff2f0023
:10551800934f1100e6ff3a000b00e0000a0032004a
:1055280080c8b300994f100035003200e0ff2f000b
:105538004f0678004f05be004f04be000080fa00f9
:1055480000000600dfff370080c8b300994f100045
:10555800f6ff32000b007800697678000000e8005a
:10556800e40f5000fcff3a000a4c780000c7b30073
:10557800004f980009007800e9004700b05878000b
:10558800800f5400fdff3a008002eb00264e2000f9
:10559800070020000e02780053002000090178005f
:1055a80071002000080078003d0b0700804078005b
:1055b8000000fb00e6cf4000bcff32000104e00021
:1055c800bbff3a00300020009e0f1000d7ff3a00c2
:1055d8000b00e000100032001980fb000028a30037
:1055e800d2ff32000000eb004f0678004f05be00e6
:1055f8004f04be000080fa0000000600b1ff37002b
:105608000c0178006300470030597800830f500080
:10561800fdff3a00d4ff37001980fb000028a300e3
:10562800c2ff3a000058a300eeff3a00bfff370060
:105638000400fa00889fbe008a1f78008004780062
:105648000e047800001ceb000000eb00ce050700fc
:105658000000eb001006070025002000264e200061
:10566800070020000e027800850178000801780004
:105678006000b8000a0b070000417800c3ff2f0044
:10568800e44f400005003a00030078004f05780019
:105698004f04be000080fa0000000600a3ff2f00a0
:1056a800e64f4000f8ff32000004e0000600320038
:1056b800f0ff2f004f0578004f04be000080fa006d
:1056c80000000600f5ff3700200020009e0f1000a4
:1056d800f7ff3a009841780083007800010cb20087
:1056e800000c2000808f500006003a00e0ff2f00d9
:1056f8004f0578004f04be000080fa000000060045
:10570800e6ff370011c0b3005a00200001c0610055
:10571800010032000241e80081c040000a05e900aa
:10572800faff3a00e14f5100f0ff3a00e0c22200d0
:10573800800c980080ce2200900c98009880fb0086
:10574800010cb2000b003a0040c0b300a04c980016
:105758000901780030c9b3003cff07000000780059
:105768004f0578004f04be000080fa0000000600d4
:10577800caff3700090178001100200030c9b300c2
:1057880032ff0700804078000004e0000c003a0077
:105798001880fb00000cb20001042000810f5000ab
:1057a80020003200638144001100200050c9b3007a
:1057b80026ff0700804078000004e0000700320060
:1057c8008101fb00030078004f0578004f04be00fc
:1057d8000080fa0000000600b0ff37001880fb00c8
:1057e800000cb200b3ff2f0001082000810f500009
:1057f800a5ff3a00a0c0b300a04c98006681440001
:105808008a00780070c9b30010ff07000000780014
:105818004f0578004f04be000080fa000000060023
:105828009eff370070c0b300a04c9800638144000d
:105838008a00780050c9b30004ff07000000780010
:105848004f0578004f04be000080fa0000000600f3
:1058580092ff37001a00fa00889fbe008a1f78005e
:10586800000578000e047800001ceb0010002000f2
:105878008905070000ceb300004c780000c8b300cb
:1058880030479800e40447008002eb0006802100be
:10589800170020000e02780063012000090178003b
:1058a80021002000080078007d0a07000004e000bd
:1058b800050032000000fb004f0578004f04be00d1
:1058c8000080fa00000006001e007800e20f500079
:1058d80006003e00e0ff2f004f0578004f04be0091
:1058e8000080fa0000000600f7ff37001941780031
:1058f8008080e9000280fb00808f5000f5ff3a00ad
:1059080021c0b30023002000e14f51000300320002
:105918005e409000ef4060008081fb000040eb009b
:10592800604d9800704d9800504d980040c0b300ed
:10593800304d9800414d9800e8cf500002003600e5
:1059480080c0b300404d98000348a30009003a0006
:10595800660047000358a3000f003a000000eb0060
:105968004f0578004f04be000080fa0000000600d2
:10597800d5ff37006e409000e7406000714d9800f9
:105988004400de0067006000604d98006700470033
:105998000358a300f1ff320010417800ef40610086
:1059a800514d98001080fb004400de00304d9800f7
:1059b800e8cf5000c7ff3e00ee4f5000c5ff3e0045
:1059c8000000eb00e6ff37000200fa00889fbe00e7
:1059d80000c5b300004f78000040eb001047980066
:1059e8000000eb002c0507006d0507006000200093
:1059f800e104070038c0b3009d090700800478005f
:105a08000000e00008003a0077fe07000000e00010
:105a18000a003a000844e900f7ff3a004f04be00c4
:105a28000080fa0000000600a0ff2f004f04be000f
:105a38000080fa0000000600fbff370089027800aa
:105a4800264e20000700200009027800890178000e
:105a580009017800210020000e0078006505070084
