:020000040000fa
:080000000002040000000000f2
:020000040000fa
:100400006f092100007f2200000188000000000029
:100410000c000700c011240001002000110007009b
:10042000000020000000e000020032000000020096
:1004300000000000d2160200000000000040da00b8
:100440000000fe004440a900204e20000000e00013
:100450000300320000002000a00188004440a800f2
:100460000000060091018800800078000000eb0089
:1004700015003700e280400032a0b4009101ba00bc
:10048000e280400032a0b4009102ba00e280400055
:1004900032a0b4000002eb00472bde00f507b200eb
:1004a000602ce10004003a000059eb008301e900f0
:1004b000fdff3e00040037006128e100010032002a
:1004c0000082eb00040007001101ba000200e00006
:1004d000e8ff3a00000006003159ba008301e90044
:1004e0000c0032002159ba008301e90008003200f3
:1004f0000400e00003003a00e280400032a0b400b3
:10050000f5ff370011d9ba008301e900faff3a007c
:100510008100e800e180400032a0b4000000060045
:1005200000000000000000000000000000000000cb
:1005300000000000000000000000000000000000bb
:1005400000000000000000000000000000000000ab
:10055000000000000000000000000000000000009b
:10056000000000000000000000000000000000008b
:10057000000000000000000000000000000000007b
:10058000000000000000000000000000000000006b
:10059000000000000000000000000000000000005b
:1005a0008001eb0002003700817178008301e800d0
:1005b000828f5100fcff3a00000006008001eb0032
:1005c0000200370061f079008301e800828f51005a
:1005d000fcff3a0000000600808f50000e00310042
:1005e00082814000830f50000b0031000202400066
:1005f0008000eb0002003700436278008100e800d1
:10060000828f5000fcff3a000000060061f0790084
:100610008301e800010037008001eb00828f510068
:10062000faff3a0000000600800078000100370061
:100630000000e8001004e000fdff3a000100500057
:1006400000000600839f68000100e00002003d00fa
:1006500060001000e08018000300e00002003d0090
:1006600060011100e0811900050007004f00e00063
:1006700002003b0060001000e0801800000006004f
:100680006022b800060220000000d0008180d20065
:100690000482d2008582d2000000a0000202520033
:1006a00083825a00030031000202420083824a0022
:1006b0000000a1000603e900f3ff3a000000060075
:020000040000fa
:020000040001f9
:0457f00033ff000083
:020000040000fa
:020000040001f9
:0457f400c0fc0000f5
:020000040000fa
:020000040001f9
:0457f800af89000075
:020000040000fa
:020000040001f9
:0457fc00603f00000a
:020000040000fa
:10000800a2430000a2430000a2430000a243000054
:10001800a2430000a2430000a2430000a243000044
:10002800a243000070350000a2430000103d00000c
:10003800a2430000a2430000a2430000a243000024
:10004800a2430000a2430000a2430000a243000014
:10005800a2430000a2430000a2430000a243000004
:10006800a2430000a2430000a2430000a2430000f4
:10007800a2430000a2430000a2430000a2430000e4
:10008800a2430000a2430000a2430000a2430000d4
:10009800a2430000a2430000a2430000a2430000c4
:1000a800a2430000a2430000a2430000a2430000b4
:1000b800a2430000a2430000a2430000a2430000a4
:1000c800a2430000a2430000a2430000a243000094
:1000d800a2430000a2430000a2430000a243000084
:1000e800a2430000a2430000a2430000a243000074
:1000f800a2430000a2430000a2430000a243000064
:10010800a2430000a2430000a2430000a243000053
:10011800a2430000a2430000a2430000a243000043
:10012800a2430000a2430000a2430000a243000033
:10013800a2430000a2430000a2430000a243000023
:10014800a2430000a2430000a2430000a243000013
:10015800a2430000a2430000a2430000a243000003
:10016800a2430000a2430000a2430000a2430000f3
:10017800a2430000a24300000c100000a2430000ac
:10018800a2430000a2430000a2430000a2430000d3
:10019800a2430000a2430000a2430000a2430000c3
:1001a800a2430000a2430000a2430000a2430000b3
:1001b800a2430000a2430000a2430000a2430000a3
:1001c800a2430000a2430000a2430000a243000093
:1001d800a2430000a2430000a2430000a243000083
:1001e800a2430000a2430000a2430000a243000073
:0801f800a2430000a243000035
:020000040000fa
:10020800a2430000a2430000a2430000a243000052
:10021800a2430000a2430000a2430000a243000042
:10022800a243000070350000a2430000103d00000a
:10023800a2430000a2430000a2430000a243000022
:10024800a2430000a2430000a2430000a243000012
:10025800a2430000a2430000a2430000a243000002
:10026800a2430000a2430000a2430000a2430000f2
:10027800a2430000a2430000a2430000a2430000e2
:10028800a2430000a2430000a2430000a2430000d2
:10029800a2430000a2430000a2430000a2430000c2
:1002a800a2430000a2430000a2430000a2430000b2
:1002b800a2430000a2430000a2430000a2430000a2
:1002c800a2430000a2430000a2430000a243000092
:1002d800a2430000a2430000a2430000a243000082
:1002e800a2430000a2430000a2430000a243000072
:1002f800a2430000a2430000a2430000a243000062
:10030800a2430000a2430000a2430000a243000051
:10031800a2430000a2430000a2430000a243000041
:10032800a2430000a2430000a2430000a243000031
:10033800a2430000a2430000a2430000a243000021
:10034800a2430000a2430000a2430000a243000011
:10035800a2430000a2430000a2430000a243000001
:10036800a2430000a2430000a2430000a2430000f1
:10037800a2430000a24300000c100000a2430000aa
:10038800a2430000a2430000a2430000a2430000d1
:10039800a2430000a2430000a2430000a2430000c1
:1003a800a2430000a2430000a2430000a2430000b1
:1003b800a2430000a2430000a2430000a2430000a1
:1003c800a2430000a2430000a2430000a243000091
:1003d800a2430000a2430000a2430000a243000081
:1003e800a2430000a2430000a2430000a243000071
:0803f800a2430000a243000033
:020000040000fa
:1006c000454d0000563a00002064000065610000be
:1006d000637400006976000061740000696e0000b8
:1006e000672000006361000072720000696500000d
:1006f000720a0000004500004d5600003a2000003c
:100700006163000074690000766100007469000094
:100710006e670000206300006172000072690000d3
:10072000657200000a000000454d0000563a0000c6
:1007300020630000617200007269000065720000b1
:10074000206e00006f7400002061000063740000e0
:10075000697600006174000065640000210a0000f1
:10076000004500004d5600003a200000736900006b
:100770006e6700006c650000207000006f6c000068
:100780006c0a0000004500004d5600003a200000b1
:100790007265000073650000746900006e670000f8
:1007a000206f000070650000726100007469000035
:1007b0006e67000020660000696500006c64000040
:1007c0000a000000454d0000563a00002057000086
:1007d00055500000410a0000004500004d56000041
:1007e0003a200000000a0000004500004d560000bd
:1007f0003a200000746900006d6500006f7500000c
:100800007420000065720000726f0000720a000020
:10081000004500004d5600003a20000062750000bf
:100820006666000065720000206f000076650000bb
:10083000726600006c6f0000772000006572000097
:10084000726f0000720a0000004500004d56000063
:100850003a20000074720000616e0000736d0000a9
:1008600069730000736900006f6e0000206500006e
:10087000727200006f7200000a000000454d000017
:10088000563a000020660000756e00006374000098
:10089000696f00006e200000636100006c6c000056
:1008a0002070000061720000616d0000657400003e
:1008b0006572000020650000727200006f72000017
:1008c0000a000000454d0000563a00002057000085
:1008d00055500000420a0000004500004d5600003f
:1008e0003a20000063610000726400002073000081
:1008f000656c000065630000746500006420000002
:10090000004500004d5600003a20000063610000e1
:1009100072640000206100006374000069760000ca
:1009200061740000656400000a000000454d00008d
:10093000563a0000207300007461000072740000d9
:10094000696e00006720000070720000657600008c
:10095000616c00006964000061740000696f000050
:100960006e20000061700000706c00006963000080
:1009700061740000696f00006e2e00000a00000024
:10098000454d0000563a00002070000072650000de
:10099000766100006c690000646100007469000009
:1009a0006f6e000020610000707000006c69000034
:1009b00063610000746900006f6e00002066000033
:1009c000696e00006973000068650000642e000015
:1009d0000a000000454d0000563a0000207000005b
:1009e00072650000766100006c69000064610000bf
:1009f000746900006f6e00002061000070700000dc
:100a00006c69000063610000746900006f6e000093
:100a100020730000746f00007070000065640000b7
:100a20002e0a0000004500004d5600003a2000004c
:100a30007374000061720000746900006e6700004a
:100a4000206400006967000069740000616c0000a8
:100a500020610000707000006c690000636100009c
:100a6000746900006f6e00002e0a0000004500004f
:100a70004d5600003a2000006469000067690000dc
:100a8000746100006c20000061700000706c000058
:100a90006963000061740000696f00006e2000004f
:100aa000666900006e6900007368000065640000fc
:100ab0002e0a0000004500004d5600003a200000bc
:100ac0006469000067690000746100006c20000028
:100ad00061700000706c00006963000061740000c8
:100ae000696f00006e200000737400006f700000da
:100af00070650000642e00000a00000025680000f8
:100b000068780000004500004d5600003a200000c3
:100b10006e6f000020650000727200006f720000ae
:100b20000a000000454d0000563a00002063000016
:100b30006f6c00006c690000736900006f6e00004c
:100b400020650000727200006f7200000a00000051
:100b5000454d0000563a000020700000726f000002
:100b6000746f0000636f00006c200000657200006d
:100b7000726f0000720a0000004500004d56000030
:100b80003a20000074720000616e0000736d000076
:100b900069730000736900006f6e0000206500003b
:100ba000727200006f7200000a000000454d0000e4
:100bb000563a000020740000696d0000656f000067
:100bc0007574000020650000727200006f720000f2
:100bd0000a000000454d0000563a00002069000060
:100be0006e740000657200006e6100006c200000f1
:100bf00065720000726f0000720a0000004500007c
:100c00004d5600003a200000737400006f70000021
:100c1000706500006420000065720000726f0000c3
:100c2000720a0000004500004d5600003a20000006
:100c3000756e00006b6f0000776e0000206500008d
:100c4000727200006f720000206300006f64000089
:100c5000650a0000004500004d5600003a200000e3
:100c6000506f00006c6c0000696e0000672000008f
:100c70002e2e00002e0a0000004500004d560000f8
:100c80003a200000526500006d6f0000766500009c
:100c90002063000061720000642000002e2e00001e
:100ca0002e0a0000004500004d5600003a200000ca
:100cb000756e00006b6f0000776e0000206d000005
:100cc0006573000073610000676500002063000029
:100cd0006f640000650a0000004500004d560000ea
:100ce0003a200000432d0000415000004455000010
:100cf000200000000a000000454d0000563a0000a8
:100d0000205200002d4100005044000055200000fa
:100d10000000000000870000d2860000b0860000be
:100d20000487000006000000ff09000001a1000088
:100d300001190000012900004015000000260000f4
:100d4000ff000000750800009540000081000000d1
:100d5000190100002940000091000000c0000000bf
:100d60002203000041000000530000003300000097
:100d700039000000310000003100000020000000b8
:100d8000450000004d00000056000000200000005b
:100d9000420000006f0000006100000072000000cf
:100da000640000002e0300006100000075000000d8
:100db0007300000074000000720000006900000071
:100dc000610000006d000000690000006300000089
:100dd000720000006f000000730000007900000046
:100de0007300000074000000650000006d0000004a
:100df00073000000200000004100000047000000d8
:100e0000040300000904000009020000290000009a
:100e10000101000000c00000fa0900000400000009
:100e20000002000003000000000000000921000093
:100e30001101000000010000221d00000007000059
:100e400005810000034000000001000007050000cc
:100e5000010300004000000001000000120100003a
:100e60000002000000000000000800002513000040
:100e700002c80000020000000102000000010000a2
:100e8000415300003339000031310000204600009a
:100e900057200000763000002e3200002e32000075
:100ea0002028000042750000696c0000743a0000c0
:100eb000204d000061720000202000003120000061
:100ec000323000003132000020310000323a0000a0
:100ed000333000003a35000036290000005200008f
:100ee000454700003a2000002568000068780000af
:100ef0003a20000025680000687800000a00000021
:100f00005465000073740000205200004547000043
:100f10003a20000025680000687800003a200000b0
:100f200025680000687800000a000000454d0000b8
:100f3000563a0000206100006e6100006c6f0000f6
:100f4000672000007365000074740000696e000083
:100f5000677300003a2000002568000068780000f0
:100f600025680000687800002568000068780000a7
:100f70002568000068780000256800006878000097
:100f80002568000068780000256800006878000087
:100f900025680000687800000a000000454d000048
:100fa000563a000020730000657400007469000068
:100fb0006e6700007320000061700000706c00001c
:100fc00069650000640a0000000a000000000000db
:100fd000256800006878000020250000686800008f
:100fe00078200000256800006878000020250000b7
:100ff000686800007820000025680000687800001c
:1010000020250000686800007820000025680000a6
:10101000687800002025000068680000780a000059
:10102000002500006868000078200000000a000029
:101030000000000000a40000040000000e320000c8
:1010400050410000592e000053590000532e00005b
:1010500044440000463000003100000000a40000bd
:10106000040000000e32000050410000592e000024
:1010700053590000532e0000444400004630000045
:04108000310000003b
:020000040000fa
:101084000000fa009ec0a900f00f20007024880020
:10109400502488002000200030258800a824ef0078
:1010a4008644a900f0092000802488006024880078
:1010b4008804a800010021004808de00c02488003c
:1010c4009424a8009624ef00ac24ef009424a900f3
:1010d4000001eb00010078000018eb000018eb00a1
:1010e4000201e800e80f5100fbff3a00d0002000a5
:1010f400502588008ac4bf000038a30005003200d0
:1011040082007800512488008ac4bf000038a300fc
:10111400fcff3a005e70ef005270ef0053d0bf0046
:101124005370ef0054d0bf005470ef0094a4a90092
:101134000000eb00c3042100220421008000780099
:1011440001b07900013079000080e800e40f50001c
:10115400fbff3a00800021006082880001007800d3
:1011640057f0b700c18288000080fa000000060032
:101174000000fa000001eb008000eb0040072000b3
:10118400ee1a07008284a9000001200000248800d0
:101194000080fa00000006000000fa008284a80023
:1011a40000012000502488000001eb008000eb00c7
:1011b40050072000e11a07000080fa000000060032
:1011c4000000fa00aac4bf000018a3000600320001
:1011d400428280009240900000c8b30080cf50004b
:1011e40005003200aa24a900000820005024880029
:1011f4000080fa00000006006082800090409000a9
:1012040040c8b30080cf5000f6ff3a006840400069
:1012140010419800aa24a900f3ff37000000fa0047
:1012240040828000104278000481fb0031052100d7
:10123400914078008180fb0054d0bf004800dd005d
:1012440001007000800f51000500360053d0bf002c
:101254004105210091407800004278000081fb00a4
:1012640031052100914078008180fb0054d0bf00fb
:101274004800dd000100700002005000310521002b
:101284009140780053f0b7004800de00410521008a
:101294009140780054f0b7000404e00015003200d7
:1012a4008041eb000001eb006502210001052100f3
:1012b400914078008180fb0051d0bf004800dd00e0
:1012c4000100700062d87a00010521009140780085
:1012d40050f0b7004800de0011052100914078006d
:1012e40051f0b7008341e8000201e800834f520047
:1012f400eeff3a0031052100914078008180fb0027
:1013040054d0bf004800dd00010070000e00320020
:1013140081c0b300308280000148780031828000af
:1013240060022100900098004082800010409000ec
:101334000068a3001e00320080c8b30090409800eb
:101344000080fa000000060081c0b30030828000f3
:101354000148780031828000e0022100900098006a
:1013640040c8b30090409800510521009140780096
:101374008180fb0056d0bf004800dd0001007000f2
:101384000700320051052100914078008180fb0064
:1013940056d0bf004800dd000100700000000100cd
:1013a40052f0a9000080fa0000000600e6ff3700b2
:1013b40080ccb300904098000080fa000000060042
:1013c400e1ff37000000fa008040eb0001007800e4
:1013d40040f0b70060828000114098006082800075
:1013e4000020a200114098005250e2000f003d007e
:1013f40051052100914078008180fb0056d0bf0048
:101404004800dd0001007000070032005105210092
:10141400914078008180fb0056d0bf004800dd0079
:10142400010070000000010052f0a9000080fa00e1
:10143400000006000000fa0040d0bf00e24f500058
:1014440011003200dfff07003a10e200030032000f
:101454003a30ef000080fa000000060081c0b300bb
:10146400308280000148780031828000e00221004f
:1014740090009800c0c8b300904098000080fa0023
:1014840000000600f5ff370064ff07000080fa0043
:1014940000000600f1ff37000000fa00f10521000a
:1014a400914078008180fb0060d0bf004800dd00df
:1014b4000100700084002000e70f50000b003e0084
:1014c400f1052100914078008180fb0060d0bf00cd
:1014d4004800dd00010270004150e2007500320056
:1014e40041d0bf00e14f500075003200628280009d
:1014f40012409000c820de000140700010419800a6
:101504006082800004487800f10521009140780051
:101514008180fb0060d0bf004800dd000100700046
:1015240004005000f1052100914078005ff0b700fd
:101534004800de00010621009140780060f0b70009
:1015440060022100f08188005ed0bf000008a30083
:101554002e003a008001eb000400e00002003a0093
:101564000080fa0000000600f2818000c10521001d
:10157400914078008180fb005dd0bf004800dd0011
:1015840001007000b040780001597800f2818800b1
:10159400c1052100914078005cf0b7004800de00ee
:1015a400d1052100914078005df0b7008301e80087
:1015b400830f5200eaff3200f2818000c10521004e
:1015c400914078008180fb005dd0bf004800dd00c1
:1015d40001007000b040780001597800f281880061
:1015e400c1052100914078005cf0b7004800de009e
:1015f400d1052100914078005df0b7008301e80037
:10160400830f5200d8ff3a00d5ff37008001eb006a
:101614000400e000d2ff3200f2818000c105210005
:10162400914078008180fb005dd0bf004800dd0060
:101634000100700030597800f2818800c105210052
:10164400914078005cf0b7004800de00d10521002d
:10165400914078005df0b7008301e800830f5200e9
:10166400bfff3200f2818000c10521009140780063
:101674008180fb005dd0bf004800dd0001007000e8
:1016840030597800f2818800c1052100914078002a
:101694005cf0b7004800de00d105210091407800dd
:1016a4005df0b7008301e800830f5200daff3a00cf
:1016b400abff370010c0b30041f0b7008bff370019
:1016c40020c0b30041f0b70088ff37000000fa00e3
:1016d400881f780094a4a9005ed0bf0008c8b30096
:1016e4008840600010003a005250e2004b00350080
:1016f40081c0b300308280000148780031828000cc
:10170400e002210090009800c0c8b3009040980007
:1017140041c8b30060828000114098004f047800f3
:101724000080fa00000006005250e200fbff350082
:101734002ed0bf00884060003800320034d0bf0093
:101744000080fb0052032100124178004811dd00a3
:1017540000017100f1052100914078008180fb00b7
:1017640060d0bf004800dd0001007000800f510010
:101774000d00310041032100914078008180fb007d
:1017840035d0bf004800dd0001007000f1052100e4
:10179400914078005ff0b7004800de0001062100a8
:1017a4009140780060f0b7003bff070010c0b30021
:1017b40040f0b70081c0b300308280000148780057
:1017c40030828000e2022100120098001840980044
:1017d4003a30ef0040828000014878004182800066
:1017e4009200980040c8b300904098001000200078
:1017f400d08188006102210060828000110098007d
:1018040081ccb30060828000114098004f047800be
:101814000080fa0000000600c3ff370020c0b300b8
:1018240040f0b700608280000148780082ccb300a9
:10183400608280001240980081c0b3003082800032
:1018440001487800318280006002210090009800f5
:10185400924098004f0478000080fa0000000600cf
:10186400b1ff37000000fa00881f78006082800012
:10187400104090004600de00610460004c50aa0055
:10188400c0828000e80f50000700320040d0bf0043
:10189400e14f50000e003200cafe07004f047800ea
:1018a4000080fa000000060030d0bf000080fb007a
:1018b400b02488009604e20015003a00400020009d
:1018c400c082880040d0bf00e14f5000f2ff3a00d0
:1018d400600221006182800090009800eefe070003
:1018e40041d0bf00e24f5000130032000804e00072
:1018f4000a00320081c8b300608280001140980061
:101904004f0478000080fa0000000600e6ff37006c
:1019140000012000c0828800dcff370081ccb300c6
:1019240060828000114098004f0478000080fa0023
:1019340000000600dcff370041c8b300608280006d
:10194400114098004f0478000080fa00000006005f
:10195400d5ff37000000fa00e10221009140780031
:1019640000c8b30080cf5000020032000080fa00ab
:101974000000060000ccb3005ef0b70031d0bf0019
:10198400e24f500018003200e34f500034003200a0
:10199400e14f5000040032005e70ef000080fa0056
:1019a40000000600f3ff3700e0722800c1052100a3
:1019b400914078005cf0b7004800de00d1052100ba
:1019c400914078005df0b7005fd0bf0020c1b30044
:1019d4005ff0b70060d0bf006070ef000080fa00d5
:1019e40000000600e3ff370030d0bf000080fb009a
:1019f4000000400001692800010040001000780048
:101a0400c1052100914078005cf0b7004800de0079
:101a1400d1052100914078005df0b700c105210097
:101a2400914078008180fb005dd0bf004800dd005c
:101a34000100700010009000f10521009140780031
:101a44005ff0b7004800de000106210091407800f5
:101a540060f0b7000080fa0000000600c5ff370000
:101a640030d0bf00e24f5000cbff3e0030d0bf006b
:101a74000080fb0000004000a16828000100400035
:101a840010007800c1052100914078005cf0b70097
:101a94004800de00d1052100914078005df0b700d8
:101aa400c1052100914078008180fb005dd0bf001a
:101ab4004800dd0001007000104078000080fb0049
:101ac400f1052100914078005ff0b70060d0bf00bd
:101ad4006070ef000080fa0000000600a5ff3700e8
:101ae4000000fa005ef0a800ac24ef000000eb0058
:101af40002002100820078008018eb008018eb00bf
:101b04000000e800e80f5000fbff3a009424a8000e
:101b14004a70ef009424a9008000210060828800ac
:101b2400428288003282880030d0bf0057f0b7006c
:101b34005750e20004003a0000012000c0828800ef
:101b44000080fa0000000600120020007105210048
:101b5400100020007918070000022000c0828800cd
:101b64000080fa0000000600f7ff37000000fa00ca
:101b74002670ef002770ef002ed0bf007f006000ba
:101b8400e10f500019003200e20f5000190032003a
:101b94000000e0000f0032005e50e2000b003d0048
:101ba40060022100c1052100914078005cf0b7007b
:101bb4004800de00d1052100914078005df0b700b7
:101bc4005e10a80020c0b3005ff0b7000080fa00e8
:101bd400000006005ef0a800d0828000e10f5000f3
:101be400edff3a002630a800ebff37005ef0a800b6
:101bf400e9ff37005ef0a8003250e2000b003d0020
:101c040032d0bf006f00600000004000c10421001a
:101c140060807800104090000028a300deff3200ae
:101c240010c0b30026f0b700dbff370032d0bf008e
:101c34006f006000000040002104210060807800f3
:101c4400f4ff37000200fa0030d0bf00e14f50002b
:101c5400280032003050e20004003a002ed0bf00c9
:101c64007f406000e24f5000020032000080fa0022
:101c74000000060032d0bf006f406000fbff32005e
:101c84005ef0a8003250e20023003d0032d0bf00d5
:101c94006f00600000004000c1042100608f7800e4
:101ca4002fd0bf00e34f50002b00320032d0bf00d2
:101cb4006f00600000004000a14a200001004000c5
:101cc4001014a1003250e20019003d008040eb00e6
:101cd4001e007800114098001e24a20001c4b30025
:101ce4001e007800114098000080fa0000000600f1
:101cf400e0ff37002ed0bf007f406000d5ff3a00e0
:101d04005ef0a8002fd0bf00e34f5000180032004f
:101d14005a30ef00cfff370032d0bf006f006000b1
:101d24000000400021042100608f7800dcff3700b0
:101d340081c8b3001e007800114098001e24a20040
:101d440081ccb3001e007800114098000080fa0096
:101d540000000600c7ff370041c8b3001e0078002a
:101d6400114098000080fa0000000600c1ff37000f
:101d740010002000d0828800b6ff37000000fa006f
:101d84002ed0bf000046b20006003a002fd0bf009c
:101d94000080fb0001002000eb0f5000e08f580092
:101da400020036000080fa00000006000060010016
:101db4000b0037004c003700faff37004a003700a9
:101dc400f8ff3700420037003d0037003500370088
:101dd40027003700220037000f00370004003700c7
:101de40062ff07000080fa0000000600efff3700e2
:101df4005ef0a80032d0bf000080fb00a1042100e7
:101e0400020321001241780002f078000080fa00f9
:101e140000000600e5ff370032d0bf000080fb0061
:101e2400a104210001004000c10521009140780077
:101e34005cf0b7004800de00d10521009140780035
:101e44005df0b7005e10a80010c0b3005ff0b700eb
:101e54005ef0a8000080fa0000000600d3ff3700ff
:101e64001fff07000080fa0000000600cfff3700c4
:101e740070052100c1052100914078005cf0b70095
:101e84004800de00d1052100914078005df0b700e4
:101e94005e10a80010c0b3005ff0b7005ef0a800a9
:101ea400ecff37000001eb008000eb002000200075
:101eb400a21707000080fa0000000600bbff3700ed
:101ec400a4fe07000080fa0000000600b7ff3700f8
:101ed4005ef0a80080002000c08288000080fa0024
:101ee40000000600b1ff370056ff07000080fa002b
:101ef40000000600adff37000000fa006182800098
:101f0400114090000004e00002003d000040eb009e
:101f1400904098004170ef004070ef005fd0bf0028
:101f24005f70ef0060d0bf006070ef005e70ef0084
:101f340092ff07000001eb008000eb00300020005e
:101f44007e170700e1fd07000080fa00000006008c
:101f54000000fa003cd0bf0080017800b30fb2004b
:101f64000f003a003cd0bf00c00fb20001002100b6
:101f74000101400042828800328288004650aa0053
:101f840012409000c043b20041c3b300814f5000df
:101f94000b00320027fd07000080fa000000060055
:101fa4003cd0bf00b00fb200e80f5000faff3a0077
:101fb4002cfe07000080fa0000000600f8ff37003e
:101fc4001200900064022100840f500004003200cb
:101fd400c9ff07000080fa0000000600f0ff370088
:101fe400e0022100100198008000780003007800ce
:101ff400e47078000000e800e80f5000f4ff3200bd
:10200400e47078000000e800e80f5000f8ff3a00a0
:10201400efff37003600f800809fbe00829fbe00ad
:10202400849fbe00869fbe00889fbe003400f800d7
:1020340000002000a00188000000fa00c082800097
:10204400e10f50002400320080c4bf000048a30008
:102054000300320082c4bf000048a30084003a0099
:1020640088c4bf000018a30011003a008ac4bf004e
:102074000008a30069003a008ac4bf000048a30016
:102084005c003a008ac4bf000028a3004d003a0057
:102094008a44e200440035008ac4bf000018a3004b
:1020a40034003a00c0828000e30f500014003e0068
:1020b4008ec0a9000080fa003400f9004f04be006d
:1020c4004f03be004f02be004f01be004f00be00d2
:1020d4003600f9000040060094c4bf000068a30065
:1020e400d9ff3a00f00f2000502488008c04a80087
:1020f4008c84a80020002000c0828800d2ff370012
:102104008cc4bf000038a300e9ff32000044eb0098
:10211400890020008ac4bf000038a300e4ff320015
:10212400902480003cf0b700592488003cd0bf00c4
:10213400000fb20052003a0085ff07000844e8008f
:10214400e44f5400f3ff3a008ec0a9000080fa0067
:102154003400f9004f04be004f03be004f02be001e
:102164004f01be004f00be003600f90000400600db
:10217400d9ff37008cc4bf000018a300c9ff320088
:10218400120020008000eb00f0ff2700eb16070090
:10219400f00f200070248800c0828000e30f5000fc
:1021a400c3ff3600d6ff37008c44e200baff3d007f
:1021b40003fc07008ac4bf000018a300b9ff320063
:1021c400ecff37008cc4bf000028a300b0ff32002e
:1021d400120020008000eb0030072000d716070013
:1021e40040002000502488008a44e200aaff3d00f9
:1021f400edff37008cc4bf000048a300a1ff3200ec
:10220400e5fb070000012000502488008ac4bf00b9
:102214000028a3009eff3200eaff37008cc4bf00f1
:102224000008a30094ff320095fb07009ec0a8009d
:1022340040002000c0828800e00221001080880055
:1022440080c0b30000f0b70030c0b3000170b60026
:10225400c0c8b3000170b7001000200050248800eb
:102264008ac4bf000048a30086ff3200e1ff3700a4
:102274000001200000248800bdfb070078ff370020
:102284000001eb00c103210020072000ab1607006a
:102294000844e800e44f54009eff3a00aaff3700c8
:1022a4000000fa000080fb00800140000180fb0078
:1022b400008041004300dd000200210002014000d3
:1022c400124090000070a100104198000104e00049
:1022d4000b003a0020042100823178001240900063
:1022e4000060a10010419800e400410011409000fa
:1022f4000060a000904098000080fa0000000600f2
:10230400c004210082317800124090000060a100d6
:1023140010419800e4004100114090000060a000ca
:10232400904098000080fa0000000600f4ff370097
:102334000000fa00889fbe00804478000080fb0003
:1023440000004000a24a2000017079000184fb00d3
:102354000838a3000c003a000828a30003003a0040
:102364004f04be000080fa000000060011c0b30054
:1023740009407800caff07004f04be000080fa003d
:1023840000000600f9ff37008040eb0009407800a8
:10239400c3ff07000828a300f1ff3200f3ff370052
:1023a4000000fa00014178000004e0000d003a004a
:1023b40081c0b300308280000148780031828000ff
:1023c400e002210090009800c0c8b300904098003b
:1023d40041c8b30060828000114098000080fa0078
:1023e400000006008080fb00818040000280fb002a
:1023f40080804000c308dd0002002100028140000b
:102404001240900043c8b30003407000104198008c
:102414004000210080804000114090000340700083
:10242400904098000080fa0000000600edff37009d
:102434000000fa00014378000104e00018003200b3
:102444008082fb0085804200c00421006102780084
:102454000400e0000f00320012029800034a7800e2
:10246400144090000044b2001042980014409000c0
:1024740081c8b30001407000104298000604e000d7
:102484000c003a00058042002104210001004000b4
:102494001024a200040078000080fa000000060066
:1024a4008082fb00858042002004210061027800c4
:1024b400e7ff370005804200c1042100010040000d
:1024c4001024a200040078000080fa000000060036
:1024d400f3ff37000000fa008040780094c4bf0086
:1024e4000058a300180032000181fb0002014100e2
:1024f400c4042100e2017a001300be000504200098
:1025040000806200010020008089be00e2017a00a0
:1025140000042000010020009319680093916800d2
:10252400040141001224a20092007800114090009e
:102534000044b2009040980092007800114090004e
:1025440005406800904098000080fa0000000600f2
:102554000000fa000000eb00a0248800602488003a
:10256400c08288000080fa00000006000000fa0023
:10257400c18280000100e0000f003a00a12488001d
:10258400612488002000200030258800412588002f
:102594008644a900f0092000802488006024880073
:1025a4009ec0a80094c4bf000008a3000400320029
:1025b40010002000c08288000080fa00000006009d
:1025c4009404a80094c4bf000008a300f8ff3a00d4
:1025d4009404a80094c4bf000008a300f8ff3200cc
:1025e400f3ff37000000fa00007428000080fa00ae
:1025f400000006000200fa00881f780000447800fa
:10260400004feb008e0078004d0a07001e80fb008f
:10261400801f78000880fb00801f7800f076280077
:10262400801f78004e060700e68757004f047800a5
:102634000080fa00000006000200fa00881f7800fb
:1026440000447800004feb008e007800900a0700e9
:102654001e80fb00801f78000880fb00801f78002c
:1026640000782800801f78003d060700e6875700a1
:102674004f0478000080fa00000006000400fa000d
:10268400889fbe008a9fbe008c9fbe000001780018
:10269400104078000080fb0001002000000eb10013
:1026a4000180b100f10f5000e08f580013003e008c
:1026b40000600100180037002000370028003700b0
:1026c400300037003800370040003700480037003a
:1026d4005000370059003700080037006100370008
:1026e40006003700050037000400370003003700f8
:1026f40065003700ec0037001301370090cfb300ba
:102704000080fb004f06be004f05be004f04be0014
:102714000080fa0000000600c00e07000040eb0035
:102724000080fb004f06be004f05be004f04be00f4
:102734000080fa0000000600f7ff3700c80e07000b
:102744000040eb000080fb004f06be004f05be00ba
:102754004f04be000080fa0000000600eeff3700c0
:10276400cd0e07000040eb000080fb004f06be00ca
:102774004f05be004f04be000080fa0000000600b2
:10278400e5ff3700d20e07000040eb000080fb009d
:102794004f06be004f05be004f04be000080fa0085
:1027a40000000600dcff3700080f07000040eb00c4
:1027b4000080fb004f06be004f05be004f04be0064
:1027c4000080fa0000000600d3ff37004d0f070019
:1027d4000040eb000080fb004f06be004f05be002a
:1027e4004f04be000080fa0000000600caff370054
:1027f400650f07000040eb000080fb004f06be00a1
:102804004f05be004f04be000080fa000000060021
:10281400c1ff370070ceb30080f0b7000040eb007a
:102824000080fb004f06be004f05be004f04be00f3
:102834000080fa0000000600b7ff370080ceb30026
:1028440080f0b7000040eb000080fb004f06be00a4
:102854004f05be004f04be000080fa0000000600d1
:10286400adff3700af0f07000040eb000080fb0016
:102874004f06be004f05be004f04be000080fa00a4
:1028840000000600a4ff3700e80041000e80e800c5
:1028940001087800e7014100030f7800e6064100d3
:1028a40065064100e4054100e3044100620541007e
:1028b40061044100914078000180fb00801f780092
:1028c400134178000280fb00801f78009d4178004e
:1028d4000380fb00801f78009c4078000180fb008f
:1028e400801f78001b4178000280fb00801f780065
:1028f400994178000380fb00801f78009a4078009b
:102904000180fb00801f7800184178000280fb00e2
:10291400801f780060792800801f780090050700e8
:102924009841780070c161004311dd0001c8b30013
:1029340010c0b300010a0700984078000180fb0032
:102944006f006000f28757000000e00089003a0041
:1029540002c4b3008240780010c0b300f709070036
:102964001a4578000a81fb006f0161004311dd0004
:102974000274a00081cfb30010c2b300ef090700b6
:102984009941780066c161004311dd0001c3b300c1
:1029940020c0b300e90907009944780061c16400cc
:1029a4004711dd0001c8b300a0c0b300e30907006c
:1029b4000041eb0021c1b300b0c0b300df09070040
:1029c4009b4578000b81fb004511dd001c46780017
:1029d4000c80fb00670060004200dd0000417100d4
:1029e400c1cfb300c0c0b300d40907009d4678002e
:1029f4008d80fb00c408dd001e01780012417800c0
:102a04006f40610080c07000d0c0b300230907008c
:102a140050c1b300ad0a07008e81e800930178002d
:102a240093417800efc0610010c0b3006d09070046
:102a3400e07c2800801f78004905070010c0b3001f
:102a4400ecfe0700a0c2b300eafe070010c2b30008
:102a5400e8fe070020c0b300e6fe0700a0c0b300f4
:102a6400e4fe0700b0c0b300e2fe0700c0c0b3003c
:102a7400e0fe0700d0c0b300defe070010c0b300c4
:102a8400edfe07000040eb008f87e9000080fb00ab
:102a94004f06be004f05be004f04be000080fa0082
:102aa400000006001cff3700610541001a4478004d
:102ab4008880fb00e2044100194178000280fb0099
:102ac40000804000808f5000080035000040eb007b
:102ad4000080fb004f06be004f05be004f04be0041
:102ae4000080fa00000006000bff37000840780061
:102af400c0fe07000844e8000880fb009941780004
:102b04008380fb009a4178000381fb0082804000af
:102b1400810f5000edff3d0008407800b5fe07002e
:102b24000844e8000880fb00994178008380fb009a
:102b34009a4178000381fb0082804000810f50009d
:102b4400eaff3500e1ff3700a240900012409000f8
:102b5400d20807000040eb000080fb004f06be00d7
:102b64004f05be004f04be000080fa0000000600be
:102b7400e9fe37000041eb0001c4b30010c0b3000c
:102b84006e090700184478000881fb006f0161009a
:102b94004311dd000274a00081cfb300a0c2b300d2
:102ba400660907001a4578000a81fb006f0161007d
:102bb4004311dd000274a00081cfb30010c2b30042
:102bc4005e0907009941780066c161004311dd0088
:102bd40001c3b30020c0b30058090700994478002a
:102be40061c164004711dd0001c8b300a0c0b30097
:102bf400520907000041eb0021c1b300b0c0b3008b
:102c04004e0907009b4578000b81fb004511dd0050
:102c14001c4678000c80fb00670060004200dd0069
:102c240000417100c1cfb300c0c0b3004309070025
:102c34009d4678008d80fb00c408dd001e017800ed
:102c4400124178006f40610080c07000d0c0b300b2
:102c54009208070050c1b3001c0a07008e81e800e7
:102c64009301780093417800efc0610010c0b30075
:102c7400dc080700e07c2800801f7800b804070007
:102c840010c0b3005bfe0700a0c2b30059fe0700ea
:102c940010c2b30057fe070020c0b30055fe070062
:102ca400a0c0b30053fe0700b0c0b30051fe07003c
:102cb400c0c0b3004ffe0700d0c0b3004dfe0700f4
:102cc40010c0b3005cfe07000040eb008f87e900f2
:102cd4006eff37000000fa000000eb00108488004b
:102ce4002ca3ef00c1fe2f000116880031ed210056
:102cf40041168800cd02a800cc62a900616c2000b6
:102d04009140780002ceb30082c060000134a0007c
:102d14008000fd00c6e6b7008000fd00516c200075
:102d24009140780082c060007140b3008000fd00d3
:102d3400c5e6b7008000fd00816a2000914078005c
:102d440082c060007140b3008000fd00a8e6b700b7
:102d54008000fd004021a8004001a800e168200097
:102d64009140780082c060009140b3008000fd0073
:102d74008ee6b7008000fd00216c200091407800b1
:102d840082c060003140b3008000fd00c2e6b7009d
:102d94008000fd000000fc000080fa000000060036
:102da4000800fa00889fbe00caff0700c40721007c
:102db40002202c001300200000402200410f2000bc
:102dc4006b14070044a7a800802520000000e90038
:102dd400e10f4000fdff3a0000402200410f2000b7
:102de4004213070000902000d1032000008fbe0092
:102df40019c0b300494798000044eb0058479800b5
:102e040068479800784798008001eb000e0178002d
:102e140000402200410f20008a0207000940780088
:102e2400aa090700f1c0b300084078001b08070096
:102e340081ccb30020c0b300180807005000200064
:102e4400381607009420a80000402200410f2000fb
:102e54006d1307008af80700587e2800881f780041
:102e64003f04070000742800801f78003c0407001a
:102e7400881f78003a04070080c0b300d515070006
:102e8400bafd0700e687570008082100651307000c
:102e940080ceb300984f10000a00320000082100d1
:102ea40071ceb30090cf1000f8ff3a00d70d0700a1
:102eb4008070ef005b13070080ceb300984f1000c2
:102ec400f6ff3a00f40d07008070ef0000082100bf
:102ed40071ceb30090cf1000ecff3a00f3ff37003f
:102ee4000000fa00308388000080fa000000060029
:102ef4000000fa00308380000080fa000000060021
:102f04000000fa00208388000080fa000000060018
:102f14000000fa00208380000080fa000000060010
:102f24000200fa00889fbe000004be008e007800f4
:102f340030c0b300020807001e80fb008007b20007
:102f44000a003a004749dd004940de0000007100f4
:102f5400c948de0080407800e0c0b300cf07070016
:102f64004f04be000080fa00000006004a49dd005c
:102f74004640de0000007100c648de008040780054
:102f8400e0c0b300c50707004f04be000080fa008c
:102f940000000600f5ff37000000fa00881f7800e3
:102fa4000001be0000fc2f00f1032000800f51003f
:102fb400818f590015003600441add004c10de00e4
:102fc40000007200cc18de0000047800f0ff20003e
:102fd4000000610029003a0032c0b300824078004a
:102fe40010c1b30055080700c840de00f0c0b300ac
:102ff400aa0707008840780000c1b300a7070700ac
:103004004f0478000080fa00000006004a1add0030
:103014004610de0000007200c618de0000047800ce
:1030240002007800f003b2000e003a0022c0b300a0
:1030340031c0b30010c1b30040080700c840de002f
:10304400f0c0b300950707008840780000c1b300c2
:10305400920707004f0478000080fa000000060081
:10306400eaff37000804e80022c0b30031c0b3000f
:1030740010c1b30031080700f0ff37000804e8006e
:1030840032c0b3008240780010c1b3002b0807009f
:10309400d5ff37000000fa00889fbe0040838800f7
:1030a4005183880002c2b30001ceb30010c1b30043
:1030b4002208070048838000598380004d48dd00c2
:1030c4004344de0008047000c34cde00c840de0048
:1030d40020c1b300710707008840780030c1b300f5
:1030e4006e0707004f04be000080fa0000000600cf
:1030f4000000fa0040838000518380000080fa00c1
:10310400000006000400fa00889fbe008a9fbe00eb
:103114008c1f78000006780001057800820478008e
:10312400000feb003e1778000903b20020c0b30083
:10313400e608070050c1b300e408070000032000bc
:10314400808f54004a00320000022000808f540017
:103154003f003200c550de00d0c1b3004f07070066
:103164000a447800c350dd00e0c1b3004b070700f8
:1031740000062000800f550026003e008a85fb00d3
:10318400884078000c0078006c080700f08f540029
:103194002700320040c0b300cc0807008e0178003d
:1031a400420620008004200001002000e40d0700f6
:1031b40002042000030020001e0061000a00320007
:1031c4008a8f5500080031000b045500820f54000b
:1031d4001a00360002047800824078000b00460092
:1031e40056080700888545001e01be00680061007e
:1031f40003003a00e00f5100e08f5900e7ff3a0066
:103204004f0678004f05be004f04be000080fa0050
:1032140000000600004478008005780088407800ab
:103224000c00780045080700f08f5400d9ff3a00dd
:1032340050c0b300a5080700d8ff370088407800c5
:103244000b0046003d08070088854500e6ff37006f
:1032540012c0b3008240780050c0b300b707070023
:1032640060c0b300990807008005eb00cbff37006e
:1032740012c0b3008240780050c0b300af0707000b
:1032840070c0b300910807008005eb00c3ff37004e
:103294001000fa00889fbe008a9fbe008c9fbe006b
:1032a4006007980081067800720798006011b800e2
:1032b40032079800430798007e0090000008eb0056
:1032c4000005eb008a0578000a0678005a07980082
:1032d400e6014700027721000007240001002000d6
:1032e400970d07003e019000ce0190000200780087
:1032f4000004b20052003a00020078000258a30011
:10330400010032001b00200000e8a300aa003a00dc
:103314000048a300400032006000b8001007980085
:103324002107980022c0b3008e007800a0c1b3002a
:10333400d90707001e4478000874a1000e81e80034
:1033440040002000010f2000c80d07001e4090001f
:103354000080fb000058a30002003200110020008e
:103364005107980071006000050032001e009000b3
:10337400ae0090000150a0001007980021079800ab
:103384006610e200620032001e019000ae0190005f
:10339400640061005a003a000348a30058003a0050
:1033a4000002eb000358a30055003a000368a30091
:1033b400060032000880fb000000450021838000e5
:1033c400810f500001003100140020000378a30095
:1033d4004d0032000880fb008000450020838000ff
:1033e400808f500048003100e18f500046003600c5
:1033f4000c00e00084003a0020c0b300330807004a
:1034040010c1b300310807000c0578008c05780062
:103414003e019000ce019000e00f5100e08f590072
:10342400abff3a0061ff2f00010078004f06be0099
:103434004f05be004f04be000080fa0000000600e5
:1034440000042000010020002147980022c0b3009e
:103454008e007800a0c1b3008f0707009e44780057
:103464000974a1008e80e80000c3b300b40607000d
:103474002e4090000038a3001b0032000904e00035
:103484004a0032008a00780009447800eacf5400e8
:1034940001003600a8c0b3000880fb000005450009
:1034a4008a8f56000500310001c456000880fb00d5
:1034b4000085400012002000520798006e01900021
:1034c4000100410088407800d307070088c45400f5
:1034d4008e80e80000c3b300990607002e409000d8
:1034e4000038a300e5ff3a003e019000ce019000b1
:1034f4000240a00032079800430798007eff37007f
:1035040014002000a9ff37000400e000b8ff3a00cf
:103514000880fb008a0440008d8f54002a003e007e
:10352400ee0090000100450088407800ba070700cb
:103534006230ef007e019000090978001e019000be
:10354400ae01900064006100e1ff2f00b6ff3a0075
:10355400a1ff2f000348a300b3ff3a00d1ff2f00bf
:103564000378a300b0ff3a00c1ff2f000368a30053
:10357400adff3a00b1ff2f000358a300aaff3a00a1
:1035840081ff2f005e0090000000e000a6ff3a00db
:10359400000078004f06be004f05be004f04be0079
:1035a4000080fa0000000600a5ff37003e019000ed
:1035b400ce01900050ff37000b00e00012003200f3
:1035c4001c00200052ff37008ac056006e01900094
:1035d4000a004100900707008d04780010002000c5
:1035e400500798006230ef007e01900009097800ce
:1035f4001e019000ae01900064006100e1ff2f0005
:1036040089ff3a00d2ff370090ff2f004f06be001b
:103614004f05be004f04be000080fa000000060003
:1036240087ff37000800fa00889fbe008a9fbe000b
:103634008c9fbe000e84e800000c78000106780020
:103644002207980033079800840678000605be0018
:10365400850478006180620039003a006284620067
:103664002d003a000841780011c0b30050c0b300e7
:10367400b20607000841780001ccb30090c0b30043
:10368400ae060700dd0f0700004feb008e00780048
:1036940000c3b3002a0607001e80fb000028a30015
:1036a400f9ff3a000a00be003bfe0700f0ff2f00be
:1036b400f10f2000770c0700f0ff2f00f10f20001e
:1036c4001c0c07009420a800090178008c007800e5
:1036d4008e81e800130078008afe07000d0178004f
:1036e400be0090002e009000e9fe07000004780060
:1036f400f0ff2f00f10f20003b0c07009420a900dd
:10370400080078004f06be004f05be004f04be00ff
:103714000080fa00000006000041780011c0b300e8
:1037240050c0b3008506070002c4b30001ccb30047
:1037340090c0b30081060700b00f0700d2ff370026
:1037440012c0b3008240780050c0b3007b0607006b
:1037540002c8b30001ccb30090c0b30077060700e1
:10376400a60f0700c8ff37000000fa001001be00d2
:103774004819de00824878001001be004019de00be
:10378400924098001001be00481add004811de0086
:1037940002017200c819de00a240980010417800ae
:1037a400b240980040429000c440980050419000bc
:1037b400d240980060429000e4409800704090002d
:1037c400f04098000080fa00000006000000fa00b3
:1037d4000101780032427800c822dd000400200094
:1037e400124178008281fb00020020000202720074
:1037f40083827200214190004811dd000300200003
:103804000202720083827200314190000281fb0047
:1038140003002000021872000390720041419000de
:1038240042409800514190005240980061419000fc
:1038340062409800f1409000714098000080fa00c6
:10384400000006000600fa00889fbe008a9fbe00a2
:103854008c9fbe000006be00030078000300e00059
:103864000f003200e1f9200091407800e141980016
:10387400f3f920009341780073409800d4f92000b4
:103884001442780054409800c47c8000d57c8000a9
:103894000488be00c5f92000954278004540980090
:1038a400624090009eefb700724090009fefb70017
:1038b400524090009defb7001202be00c47c880005
:1038c400d57c8800424090009cefb7004022ef0076
:1038d4000404be008001eb0042fa2000b20f540041
:1038e400a28f5c00450032008301e80070014100b2
:1038f400e58f5100f9ff3a000801be000c00be003c
:103904005ef30700000578001b00200035c0b300fb
:10391400054f780036002000e80f500075003e0087
:103924000a00e0008b0032006800150010079800c0
:103934000bd1b900030020000c00be00260798003c
:103944004ef307000002be00b37c80002e039000fb
:10395400e48f510054003e004418dd0002fa2000b8
:1039640082004000c4009800d5009800a800980088
:10397400b9009800ec0040001e4278008470790081
:10398400ee0040008a307900020040000c88be003e
:103994000300e800b07c88009e0190004218dd001e
:1039a40006007000101288009ecfbf00c800dd0022
:1039b400010078004202b700800078009fcfbf006a
:1039c4000080fb004600dd000080700010128800bb
:1039d400100020002012880042a2a8000000280045
:1039e400001288000000eb004f06be004f05be0029
:1039f4004f04be000080fa000000060062b8970081
:103a0400f2b89700800f5600818f5e00b6ff3a002f
:103a14004418dd0001fa200001004000200190005c
:103a2400b0019000c27c8800d37c8800c04890001c
:103a34000183fb00700090006800100010079800dc
:103a44009e0190004218dd000600700010128800ec
:103a54009ecfbf00c800dd00010078004202b7001d
:103a6400800078009fcfbf000080fb004600dd008f
:103a740000807000101288001000200020128800be
:103a840042a2a80000002800001288000000eb00f9
:103a94004f06be004f05be004f04be000080fa0072
:103aa40000000600d5ff37008001eb00b37c8800de
:103ab4004418dd0002fa200082004000c40098008f
:103ac400d5009800a8009800b9009800ec004000c8
:103ad4001e42780084707900ee0040008a3079003c
:103ae400020040000c88be000300e800b07c88009f
:103af400a9ff37001b00200032c0b300024f78003a
:103b0400c25ddd009e4178008341e900034f7800e7
:103b14006158b8000041b8000980b9008301400031
:103b24000c00be00d5f2070000057800e80f500035
:103b3400160036009e4078000104e000f0ff3a00d1
:103b44008a0020000003eb006800150010079800ad
:103b540077ff37001a002000750020001507980031
:103b64000bd1b900030020000c00be00260798000a
:103b7400c2f207000002be00b37c80002e03900056
:103b8400e48f510074ff3600c7ff37001e427800ef
:103b94000483fb000a00e00063ff3a00edff3700f6
:103ba4000000fa004002ab00010032004012800025
:103bb40040a2ab000700320040c2a9004022ef003f
:103bc4004222ef004422ef000000eb000080fa00e4
:103bd400000006004012800040a2ab00f6ff3a004d
:103be4004012800040a2ab00faff3200f2ff37001f
:103bf4000000fa0040e2ab00feff320040a2ab003e
:103c040003003a004012800040a2ab00fdff3200e6
:103c14004002ab00010032004012800040c2a90003
:103c24000000eb000080fa00000006000000fa002b
:103c3400889fbe0080047800030478000100e0003f
:103c44000600320040a2ab0003003a00401280009c
:103c540040a2ab00fdff320040c2a9000200e00018
:103c6400230032008003eb0007037800020278008f
:103c7400e80f510033003600840020008001eb007f
:103c840086824400001280004800de006700600065
:103c9400e70f5000fbff320065c079000080fb0095
:103ca400401288008301e800830f5200f5ff3a00b8
:103cb400040343000100e000130032008001eb0024
:103cc4000400e0000800320040a2ab00feff3a000e
:103cd4000100e00012003a00401280008301e80075
:103ce400830f5200f8ff3a0004015100dfff3a004d
:103cf4000800e00018003a00080078004f04be00f5
:103d04000080fa00000006000800e000f6ff320020
:103d14008001eb000400e000ebff3a00f2ff370003
:103d240040c2ab0012003a004012800080f37800d9
:103d34008703e8008301e800830f5200e2ff3a00a2
:103d4400e9ff37000200e000ccff3a000100e00088
:103d5400daff3a00ecff3700a5ff07000000eb0094
:103d64004f04be000080fa0000000600e6ff3700a2
:103d7400d0ff2f004f04be000080fa0000000600b0
:103d8400e1ff37000000fa00889fbe008a9fbe0052
:103d94008c1f780000047800810578008304780083
:103da4000406780002054000000020000000e00046
:103db400020032009dcfbf0090f007000900e00030
:103dc4000600320040a2ab0003003a00401280001b
:103dd40040a2ab00fdff320040c2a9000a00e0008f
:103de400240032008002eb0005037800850178008e
:103df4000a017800e80f55004500360082002000d3
:103e04008000eb00f40f2000001280004800de0068
:103e140067006000e70f5000fbff3200830f54007f
:103e240027003e00441288008301e8008100e80076
:103e3400810f5100f4ff3a000900e0001a0032003b
:103e44008000eb000200e0000800320040a2ab005a
:103e5400feff3a000900e00021003a004012800011
:103e64008100e800810f5100f8ff3a000205550077
:103e7400dfff3a000c00e00030003a0000002000b0
:103e84000000e000030032009dcfbf005bf007009c
:103e94000000eb004f0678004f05be004f04be0043
:103ea4000080fa00000006000c00e000efff320082
:103eb4008000eb000200e000e4ff3a00ebff370073
:103ec4006bc079000080fb00401288008301e80089
:103ed4008100e800810f5100cbff3a00d6ff370084
:103ee40040c2ab0017003a00888f52000d00390021
:103ef4004012800000f37c000603e8008502e8001d
:103f04008100e800810f5100d0ff3a00d7ff37004d
:103f14000a00e000baff3a000900e000c8ff3a00d6
:103f2400e1ff3700401280008502e8008100e800cc
:103f3400810f5100c5ff3a00ccff37002cff07006a
:103f4400ceff3700d0ff2f004f0678004f05be008c
:103f54004f04be000080fa0000000600d2ff3700c4
:103f64000c00fa00889fbe008a9fbe008c9fbe0092
:103f7400680157009201780042c0bf000080fb0036
:103f8400c506de0091028000ff3ffc0000ceb300b6
:103f94004260b70091028800320798000304780059
:103fa400134178000204e000870032008304e80033
:103fb4000005eb005a0798008a0578004a07980024
:103fc4008281fb000280fb00010020006a00500097
:103fd400e0805800e4062000840f5000e08f580071
:103fe40073003e0000600100850037007000370058
:103ff4006f0037006e0037006d0037006c0037002b
:104004006b0037006a00370069003700680037002a
:10401400670037006600370065003700640037002a
:10402400630037006200370061003700600037002a
:104034005f0037005e0037005d0037005c0037002a
:104044005b0037005a00370059003700580037002a
:10405400570037007300370055003700540037000d
:10406400530037005200370051003700500037002a
:104074004f0037004e0037004d0037004c0037002a
:10408400720037004700370046003700450037000c
:104094004400370043003700420037004100370036
:1040a400400037003f003700410037004000370030
:1040b4003f0037003e0037003d0037003c0037002a
:1040c4003b0037003a00370039003700380037002a
:1040d400ad003700360037003500370034003700b4
:1040e400330037003200370031003700300037002a
:1040f4002f0037002e0037002d0037002c0037002a
:104104002b0037002a003700290037002800370029
:10411400270037009c0037002500370024003700b3
:1041240053003700220037002100370020003700f9
:104134001f0037001e0037001d0037001c00370029
:104144001b0037001a003700190037008e003700b3
:104154008d003700160037001500370014003700b3
:104164007f003700120037001100370010003700bd
:10417400850037000e0037000d0037000c003700b3
:104184000b0037000a003700090037000800370029
:10419400070037007c0037000500370004003700b3
:1041a400790037005e009000e10f50008500320076
:1041b40002407800c70f07000904780039417800ed
:1041c4000204e0007eff3a0092028000ff3ffc0000
:1041d400c568dd0042c0bf007f4060000140700040
:1041e40042e0b700920288000000eb004f06be00d8
:1041f4004f05be004f04be000080fa000000060018
:10420400d0c0b300b30f070018407800b10f070007
:1042140009047800394178000204e00068ff3a009c
:10422400e9ff3700e10f5500c70032001a002000f3
:104234000000eb0040079800090478003941780039
:104244000204e0005eff3a00dfff3700e10f550093
:104254006500320000c3b3009e0f07000904780014
:10426400394178000204e00055ff3a00d6ff3700d8
:104274001c002000e10f550046003a004e02900059
:10428400e20f5200a20032004e029000e10f5200f1
:104294005b0032003e029000c401780034079800ad
:1042a400450020004228dd0064035000f000200097
:1042b4008603dd000500e900000147000005eb006e
:1042c4000a02780008c3b300078061000600de001c
:1042d40080407800004978006a405000e54f500063
:1042e4006f003e0070c3b3000c00e00001003a0010
:1042f40070c5b30001494000924f14002d003200f4
:104304000a05e800c419dd000402e8000201e9001e
:10431400848f5200ecff3a000040eb0080727f0073
:104324000b00e00001003a00850578008a8f5500f3
:10433400600039008a8555003f003a000a00e00019
:1043440049003a000005eb008a057800090478006a
:10435400394178000204e00019ff3a009aff37005f
:104364000a00e000630032004e0090000000e80004
:104374004007980009047800394178000204e000fd
:104384000fff3a0090ff37000006eb00e10f5500e5
:10439400baff3200024078004e0f07008005eb00a0
:1043a40009047800394178000204e00004ff3a006f
:1043b40085ff37000a00e000d2ff32000a05e8005a
:1043c400d0ff370000fd2f00808541000002eb0084
:1043d4005407980009047800394178000204e00089
:1043e400f7fe3a0078ff37005a079800090478006e
:1043f400394178000204e000f1fe3a0072ff370010
:104404003e009000c001780030079800450020006d
:104414004228dd0064035000f00020008603dd0024
:104424000500e900000147000005eb000a027800de
:1044340008c3b300a4ff37000004eb0000c3b300bb
:10444400240f07000804e800888f5500bbff3200e2
:1044540000c3b3001f0f07000804e800888f55004d
:10446400f6ff3a00b5ff37000a00e900800547006f
:104474000004eb002b407800160f07000804e80046
:10448400880f5500afff32002b407800110f070052
:104494000804e800880f5500f6ff3a00a9ff37002a
:1044a40000c3b30000c94000924f140094ff3a00c7
:1044b400c0ff37000a00e000a2ff32000a00e90052
:1044c400800547000004eb002b407800010f070033
:1044d4000804e8008a0f54009aff32002b40780049
:1044e400fc0e07000804e8008a0f5400f6ff3a00a7
:1044f40094ff370080c6b300f60e07000904780065
:10450400394178000204e000adfe3a002eff370086
:104514003e009000c00178003007980084027800c3
:104524004228dd0064035000f00020008603dd0013
:104534000500e900000147000005eb000a027800cd
:1045440008c3b30060ff370050c2b300e10e070098
:104554000005eb004a079800090478003941780007
:104564000204e00096fe3a0017ff37000000fa004c
:10457400889fbe008a9fbe008c9fbe008006780084
:104584000105780067866000e78f5000020036005e
:10459400c30dde0024003a000c00e00008003200e5
:1045a4004350de004300dd00800f550009003e004b
:1045b40070812800801f780069fe07008f87e9005a
:1045c4004f06be004f05be004f04be000080fa0037
:1045d40000000600808446000004eb001b812800d4
:1045e400000555003980fb00801f78008b1f780080
:1045f4005bfe07000804e800e4875700880f5500b5
:10460400ebff32003980fb00801f78008b1f78009d
:1046140053fe07000804e800e4875700880f55009c
:10462400f0ff3a00e2ff3700000478008004eb005a
:10463400784090000080fb00801f78006840900064
:104644000080fb00801f7800584090000080fb0031
:10465400801f7800484090000080fb00801f780095
:10466400384090000080fb00801f780028409000b4
:104674000080fb00801f7800184090000080fb0041
:10468400801f78001880fb00801f7800807e28003f
:10469400801f780032fe07008904e80068044400a3
:1046a400f2875700898f5500bbff32007840900095
:1046b4000080fb00801f7800684090000080fb00b1
:1046c400801f7800584090000080fb00801f780015
:1046d400484090000080fb00801f78003840900024
:1046e4000080fb00801f7800284090000080fb00c1
:1046f400801f7800184090000080fb00801f780025
:104704001880fb00801f7800807e2800801f7800be
:1047140013fe07008904e80068044400f287570088
:10472400898f5500c2ff3a009bff37000000fa0052
:1047340090788800106fef000000eb000080fa0012
:10474400000006000600fa00889fbe008a9fbe0093
:104754008c9fbe00804378000104780083057800b4
:10476400040578008504780006067800e30041001b
:1047740000102000808f500006003600b0ff2f008c
:104784004f06be004f05be004f04be000080fa0075
:10479400000006000700780010eeb7000200e000f9
:1047a400070032000000eb0011e12000e84178002e
:1047b40003f078000000e800800f5100fbff3a008e
:1047c40090788000304890000080fb00041821009d
:1047d400050020000000e900030033000402420049
:1047e40085824a00fbff37001407980025079800cc
:1047f4008200e8008002eb001e039000ae039000ec
:10480400090278008a0178000b01780000e1200099
:10481400560a07008000fb008046eb008001eb0095
:1048240028c0b3001901780000102000800f510047
:104834001d003e00e28f40001b0032000100e0003a
:104844003f003200e18f40002d0032000c00e000f8
:1048540034003a0010cfbf0021cab30001407000f9
:1048640010eeb7008002eb001e039000ae03900030
:10487400090278008a0178000b01780011002000f9
:1048840000e12000390a07008000fb000844e90029
:1048940013002000e3ff3a00190178000010200003
:1048a400800f510007003600e0ff2f004f06be00c6
:1048b4004f05be004f04be000080fa000000060051
:1048c400b4ff3700e28f4000f7ff32000100e00040
:1048d40055003a0023cfb3009bcf11000a003200e9
:1048e400828ce900010078004f06be004f05be002f
:1048f4004f04be000080fa0000000600a5ff370048
:10490400e1cf5600d1ff3600c0ff2f004f06be0096
:104914004f05be004f04be000080fa0000000600f0
:104924009cff3700e10f560094ff3a0010cfbf0000
:1049340021cbb3000140700010eeb700c9ff37006f
:1049440025cfb3009bcf1200e5ff3a000300e0003f
:1049540033003a0083467800e40f5100d2ff3a0056
:10496400e2cf5600e8ff3e001b409000f1c3b300c5
:1049740001446000ccff3200b40320000500200095
:10498400b0c3b300804f540002003e000882fb0015
:104994000500200090788000304890000080fb00e3
:1049a40002182100030020000000e9000300330086
:1049b4000201410083814900fbff37000413b80062
:1049c4000590b9000700400003a1b900820340002c
:1049d4000000200001462000800f5300818f5b00ff
:1049e400010036000003be0020cfb300004f780062
:1049f400184798008002eb00090278008a017800c9
:104a04000b017800210020000e007800d709070070
:104a14008000fb008001eb0028c0b30081ff370059
:104a24008d46e800ccff3700d0ff2f00e18f400017
:104a3400b5ff32004f06be004f05be004f04be0056
:104a44000080fa000000060052ff37000c00fa0054
:104a5400889fbe008a9fbe008c9fbe008e82e800a5
:104a6400800a7800210798003207980043079800cd
:104a740054079800000feb009078800040489000a5
:104a8400e34f50008e00320059003600e54f5000cd
:104a94009f00320094003900e64f5000a600320017
:104aa400e74f5000ae0032000d102000db0f200055
:104ab4000004eb00084678000e80e800100578003a
:104ac40007f1200097437800ae0490008b8f5400c8
:104ad400290036002741b300160020008e0278001a
:104ae4000410200003e120000b0178008a00780004
:104af4000740780013ff0700800178000000e00001
:104b040055003a00110020009e8f100065003a0005
:104b140010cebf000081fb00820078000100a100dc
:104b2400200a2000808f50005e003a0007f1200028
:104b340097437800e10061000780fb00808f5000fc
:104b44003d003a000704a2000700780010efb70008
:104b54000880460063045000034678008e82e80013
:104b640095027800088542002e00900088045000c9
:104b74008b8f5400d7ff3e000044eb000714a000c5
:104b8400160020008e0278000410200003e12000ab
:104b9400090178008a00780007407800e9fe0700e0
:104ba400800178000000e0002b003a0010cebf0026
:104bb4000081fb00820078000100a100200a20008f
:104bc400808f50002a003a00e100610007f12000c4
:104bd400974378000780fb00808f5000310032003b
:104be400e24f54002f0032000844e800e3ff37008e
:104bf4008d0120005b012000e14f5000acff32002a
:104c0400e8864600db012000e14f5000a8ff3e008b
:104c14000d012000db0020000004eb0008467800b2
:104c24000e80e8001005780007f120009743780013
:104c3400ae049000a5ff3700e14f560019003e0076
:104c44000c46e800a1ff3700ce0090008881500098
:104c540088003a00b3ff2f00030078004f06be001f
:104c64004f05be004f04be000080fa00000006009d
:104c7400030478009e0178000300e000090032007c
:104c840004e12000144278008480fb0001007800d5
:104c94000000a100e20f50003b003200f20f500070
:104ca40039003200e0ff2f004f06be004f05be0062
:104cb4004f04be000080fa0000000600ecff37003d
:104cc4008d0220005b0220000004eb0008467800ff
:104cd4000e80e8001005780007f120009743780063
:104ce400ae04900079ff37000d032000db022000a2
:104cf4000004eb00084678000e80e80010057800f8
:104d040007f1200097437800ae0490006fff37004e
:104d14000d042000db0320000004eb0008467800ab
:104d24000e80e8001005780007f120009743780012
:104d3400ae04900065ff37000d062000db0520005f
:104d44000004eb00084678000e80e80010057800a7
:104d540007f1200097437800ae0490005bff370012
:104d64000d082000db0720000004eb000846780053
:104d74000e80e8001005780007f1200097437800c2
:104d8400ae04900051ff370002f120001241780078
:104d9400e18060000280fb00808f5000c1ff3a0078
:104da400824278000504a2000500780010efb700e5
:104db40008804100ce009000810f5000a2ff3e0009
:104dc4008000eb00e18f51000a0032003e009000a9
:104dd4000001440003e120008100e80061d979006a
:104de4001e00e900810f5000fbff3e0004e120009b
:104df4001442780001044400700062001400320080
:104e040020cab30000c0720010eeb7000003eb002c
:104e14008e0278000410200003e1200006017800cf
:104e24008000eb0047fe0700800178000000e000ee
:104e340090ff3200030078004f06be004f05be000d
:104e44004f04be000080fa000000060088ff37000f
:104e5400de029000880a7800000078004f06be0049
:104e64004f05be004f04be000080fa00000006009b
:104e74007fff3700be0290000881420014e1200049
:104e8400840078003159780004804100810f50007b
:104e9400fcff3a00b3ff2f006fff37000200fa0057
:104ea400881f7800f2c3b300024f600011479800d6
:104eb40028042000184478000884fb004544de00e0
:104ec40091028000ff3ffc0000ceb3004260b700b7
:104ed40091028800cd02a900140020008001eb009b
:104ee400030178008e00780020002000a5fb070055
:104ef400cd02a80092028000ff3ffc004544dd0083
:104f04002104200091407800ffc0600088c0700038
:104f14008000fd0042e0b7008000fd00920288009e
:104f2400d1ff2f000004e00001003a008000eb00f4
:104f3400010078004f0478000080fa0000000600a9
:104f44000200fa00881f7800f043b2000064a00059
:104f5400004f780028042000184478000884fb00df
:104f64004544de0092028000ff3ffc0000ceb30007
:104f74004260b70092028800cd02a900140020000c
:104f840081017800040178008e0078000400780024
:104f94007cfb0700cd02a80092028000ff3ffc00ca
:104fa4004544dd002104200091407800ffc06000ea
:104fb40088c070008000fd0042e0b7008000fd0062
:104fc40092028800d1ff2f000004e00001003a00a3
:104fd4008000eb00010078004f0478000080fa00a4
:104fe400000006000400fa00881f7800c2cfb30056
:104ff400024f7800f043b200104798002147980010
:1050040028042000184478000884fb004544de008e
:1050140091028000ff3ffc0000ceb3004260b70065
:1050240091028800cd02a900140020008001eb0049
:10503400030178008e0078003000200051fb070047
:10504400cd02a80092028000ff3ffc004544dd0031
:105054002104200091407800ffc0600088c07000e7
:105064008000fd0042e0b7008000fd00920288004d
:10507400d1ff2f000004e00001003a008000eb00a3
:10508400010078004f0478000080fa000000060058
:105094000200fa00881f7800c2cfb300024f7800e4
:1050a400f043b2000064a0001047980028042000d8
:1050b400184478000884fb004544de009202800016
:1050c400ff3ffc0000ceb3004260b70092028800ac
:1050d400cd02a900140020008101780004017800a9
:1050e4008e0078002000200026fb0700cd02a800d7
:1050f40092028000ff3ffc004544dd0021042000b3
:1051040091407800ffc0600088c070008000fd00fe
:1051140042e0b7008000fd0092028800d1ff2f001a
:105124000004e00001003a008000eb000100780078
:105134004f0478000080fa00000006000200fa0024
:10514400889fbe008a9fbe00804478000144780096
:1051540002457800004feb008e00780078ff0700ce
:1051640080457800084078000080ea008180ea00e9
:105174001e4060008a407000014f780009407800aa
:1051840046ff070000c075008000eb0005003a00f0
:10519400010078004f05be004f04be000080fa00f5
:1051a40000000600d0ff2f004f05be004f04be00d4
:1051b4000080fa0000000600faff37000200fa003f
:1051c400889fbe008a9fbe008041780081047800d9
:1051d4000244780042c0bf000080fb004505de00a9
:1051e40091028000ff3ffc0000ceb3004260b70094
:1051f400910288000204e00006003a008000eb00ff
:10520400010078004f05be004f04be000080fa0084
:1052140000000600f0c3b30000cf6100cd02a90076
:105224000002eb0084017800040178008e0078000d
:1052340010002000d3fa0700804578000880fb00a6
:10524400140020008001eb0003017800890078003d
:10525400ccfa0700cd02a80093028000ff3ffc00b7
:105264004551dd002104200091407800ffc060001a
:1052740082c070008000fd0042e0b7008000fd00a5
:105284009302880000c07500d1ff2f00dcff3a00b4
:105294008000eb00daff37000200fa00881f780074
:1052a400f043b2000064a000004f780028042000fe
:1052b400184478000884fb004544de009302800013
:1052c400ff3ffc0000ceb3004260b70093028800a9
:1052d400cd02a9000281fb001400200081017800a6
:1052e4008e00780004007800a6fa0700cd02a8001a
:1052f40092028000ff3ffc004544dd0021042000b1
:1053040091407800ffc0600088c070008000fd00fc
:1053140042e0b7008000fd0092028800d1ff2f0018
:105324000004e00001003a008000eb000100780076
:105334004f0478000080fa00000006000200fa0022
:10534400889fbe008a9fbe000005780081447800d3
:1053540000c8b300004f78000104e00006003a00e2
:105364008000eb00010078004f05be004f04be0032
:105374000080fa0000000600280420001844780089
:105384000884fb004544de0091028000ff3ffc00de
:1053940000ceb3004260b70091028800cd02a9009c
:1053a400140020008001eb00030178008e007800d7
:1053b4000400780073fa0700804578000980fb0038
:1053c400140020008001eb00030178008a007800bb
:1053d4006cfa0700cd02a80092028000ff3ffc0097
:1053e4004544dd002104200091407800ffc06000a6
:1053f40088c070008000fd0042e0b7008000fd001e
:105404009202880000c07500d1ff2f00d5ff3a003a
:105414008000eb00d3ff37000200fa00881f7800f9
:105424008001780001417800f0cbb300004f780090
:105434000104e00005003a008000eb000100780060
:105444004f0478000080fa000000060028042000c1
:10545400184478000884fb004544de009102800073
:10546400ff3ffc0000ceb3004260b7009102880009
:10547400cd02a9000281fb00140020008e007800f8
:10548400040078003ffa0700cd02a80092028000d1
:10549400ff3ffc004544dd002104200091407800da
:1054a400ffc0600088c070008000fd0042e0b700cb
:1054b4008000fd0092028800d1ff2f000004e0006c
:1054c400deff3a008000eb00dcff37000200fa0048
:1054d400881f7800f043b20001ccb300014f700084
:1054e40028042000184478000884fb004544de00aa
:1054f40091028000ff3ffc0000ceb3004260b70081
:1055040091028800cd02a900140020008001eb0064
:10551400030178008e0078000400780019fa07006f
:10552400cd02a80092028000ff3ffc004544dd004c
:105534002104200091407800ffc0600088c0700002
:105544008000fd0042e0b7008000fd009202880068
:10555400d1ff2f000004e00001003a008000eb00be
:10556400010078004f0478000080fa000000060073
:105574000400fa00881f78000e047800001ceb0079
:105584000000eb005e0607000000eb00a006070029
:1055940025002000264e2000070020000e0278007f
:1055a40085017800080178008000eb000000eb0022
:1055b400ee06070000c0ea000080fb000000e900de
:1055c4004f00de000004a2000080fb004f047800be
:1055d4000080fa00000006000e00fa00889fbe005a
:1055e4008a9fbe008c9fbe0000457800810578002c
:1055f40002067800000feb0067044700004c7800b7
:1056040000c2b300004f9800880678008e84e8003a
:1056140015002000264e2000070020000e0278000e
:1056240053002000090178002100200008007800c0
:105634007e0b0700e64f400006003a00a0ff2f0053
:105644004f06be004f05be004f04be000080fa00a6
:10565400000006000004e000070032000080eb00b8
:105664004f06be004f05be004f04be000080fa0086
:1056740000000600f7ff3700510020009e8f100045
:10568400f6ff3a000041780089007800e6014700ff
:1056940031416900818f5100fdff3a00d0ff2f0096
:1056a400934f1100e6ff3a000b00e0000a003200bd
:1056b40080c8b300994f100035003200e0ff2f007e
:1056c4004f06be004f05be004f04be000080fa0026
:1056d40000000600dfff370080c8b300994f1000b8
:1056e400f6ff32000b007800697678000000e800cd
:1056f400e40f5000fcff3a000a4c780000c7b300e6
:10570400004f980009007800e9004700b05878007d
:10571400800f5400fdff3a008002eb00264e20006b
:10572400070020000e0278005300200009017800d1
:10573400710020000d0078003c0b070080407800c9
:105744000000fb00e6cf4000bcff32000104e00093
:10575400bbff3a00300020009e0f1000d7ff3a0034
:105764000b00e000100032001980fb000028a300a9
:10577400d2ff32000000eb004f06be004f05be0012
:105784004f04be000080fa0000000600b1ff37009d
:105794000c0178006300470030597800808f510075
:1057a400fdff3a00d4ff37001980fb000028a30056
:1057b400c2ff3a000058a300eeff3a00bfff3700d3
:1057c4000400fa00889fbe008a1f780080047800d5
:1057d4000e047800001ceb000000eb00c805070075
:1057e4000000eb000a06070025002000264e2000da
:1057f400070020000e027800850178000801780077
:105804008000eb000000eb00080b0700004178006b
:10581400c3ff2f00e44f400005003a000300780066
:105824004f0578004f04be000080fa000000060017
:10583400a3ff2f00e64f4000f8ff32000004e00011
:1058440006003200f0ff2f004f0578004f04be0021
:105854000080fa0000000600f5ff37002000200059
:105864009e0f1000f7ff3a009841780083007800fb
:10587400010cb200000c2000808f500006003a009a
:10588400e0ff2f004f0578004f04be000080fa00af
:1058940000000600e6ff370011c0b3005a002000e4
:1058a40001c06100010032000241e80081c04000f3
:1058b4000a05e900faff3a00e14f5100f0ff3a000f
:1058c40060cf2200800c980000db2200900c98002e
:1058d4009880fb00010cb2000b003a0040c0b300fa
:1058e400a04c98000901780030c9b3003aff0700c2
:1058f400000078004f0578004f04be000080fa00d5
:1059040000000600caff37000901780011002000da
:1059140030c9b30030ff0700804078000004e00085
:105924000c003a001880fb00000cb20001042000b7
:10593400810f5000200032006381440011002000d8
:1059440050c9b30024ff0700804078000004e00041
:10595400070032008101fb00030078004f05780046
:105964004f04be000080fa0000000600b0ff3700bc
:105974001880fb00000cb200b3ff2f0001082000c8
:10598400810f5000a5ff3a00a0c0b300a04c9800be
:10599400668144008a00780070c9b3000eff0700d6
:1059a400000078004f0578004f04be000080fa0024
:1059b400000006009eff370070c0b300a04c9800a2
:1059c400638144008a00780050c9b30002ff0700d5
:1059d400000078004f0578004f04be000080fa00f4
:1059e4000000060092ff37001a00fa00889fbe00ec
:1059f4008a1f7800000578000e047800001ceb0074
:105a0400100020008205070000ceb300004c78008f
:105a140000c8b30030479800e40447008002eb005c
:105a240006802100170020000e0278006301200088
:105a34000901780021002000080078007b0a070093
:105a44000004e000050032000000fb004f05780070
:105a54004f04be000080fa00000006001e0078001b
:105a6400e20f500006003e00e0ff2f004f057800d3
